{
	"data": {
		"bytecode": {
			"linkReferences": {},
			"object": "6080604052670de0b6b3a764000060025534801561001b575f80fd5b5061003861002d61004460201b60201c565b61004b60201b60201c565b6001808190555061010c565b5f33905090565b5f805f9054906101000a900473ffffffffffffffffffffffffffffffffffffffff169050815f806101000a81548173ffffffffffffffffffffffffffffffffffffffff021916908373ffffffffffffffffffffffffffffffffffffffff1602179055508173ffffffffffffffffffffffffffffffffffffffff168173ffffffffffffffffffffffffffffffffffffffff167f8be0079c531659141344cd1fd0a4f28419497f9722a3daafe3b4186f6b6457e060405160405180910390a35050565b612c12806101195f395ff3fe608060405234801561000f575f80fd5b50600436106100fe575f3560e01c8063907b503d11610095578063ae169a5011610064578063ae169a50146102b2578063c20632ba146102ce578063f2fde38b146102ea578063f525cb6814610306576100fe565b8063907b503d1461020457806393f1a40b1461023457806398969e8214610266578063a2c2f1b014610296576100fe565b8063441a3e70116100d1578063441a3e70146101a45780636ea056a9146101c0578063715018a6146101dc5780638da5cb5b146101e6576100fe565b80631526fe271461010257806331276cf81461013657806334c1f9441461015457806339739b9914610188575b5f80fd5b61011c60048036038101906101179190611a3f565b610324565b60405161012d959493929190611af3565b60405180910390f35b61013e6103a3565b60405161014b9190611d11565b60405180910390f35b61016e60048036038101906101699190611a3f565b610501565b60405161017f959493929190611d88565b60405180910390f35b6101a2600480360381019061019d9190611de0565b6105e7565b005b6101be60048036038101906101b99190611de0565b610620565b005b6101da60048036038101906101d59190611e48565b610a0c565b005b6101e4610b8d565b005b6101ee610ba0565b6040516101fb9190611e86565b60405180910390f35b61021e60048036038101906102199190611e9f565b610bc7565b60405161022b9190611eca565b60405180910390f35b61024e60048036038101906102499190611ee3565b610bdc565b60405161025d93929190611f21565b60405180910390f35b610280600480360381019061027b9190611ee3565b610c0d565b60405161028d9190611eca565b60405180910390f35b6102b060048036038101906102ab9190611de0565b610c70565b005b6102cc60048036038101906102c79190611a3f565b61102e565b005b6102e860048036038101906102e39190611f91565b611279565b005b61030460048036038101906102ff9190611e9f565b6113c3565b005b61030e611445565b60405161031b9190611eca565b60405180910390f35b60048181548110610333575f80fd5b905f5260205f2090600502015f91509050805f015f9054906101000a900473ffffffffffffffffffffffffffffffffffffffff1690806001015f9054906101000a900473ffffffffffffffffffffffffffffffffffffffff16908060020154908060030154908060040154905085565b60606007805480602002602001604051908101604052809291908181526020015f905b828210156104f8578382905f5260205f2090600502016040518060a00160405290815f820154815260200160018201548152602001600282015f9054906101000a900473ffffffffffffffffffffffffffffffffffffffff1673ffffffffffffffffffffffffffffffffffffffff1673ffffffffffffffffffffffffffffffffffffffff16815260200160038201805461045f90612022565b80601f016020809104026020016040519081016040528092919081815260200182805461048b90612022565b80156104d65780601f106104ad576101008083540402835291602001916104d6565b820191905f5260205f20905b8154815290600101906020018083116104b957829003601f168201915b50505050508152602001600482015481525050815260200190600101906103c6565b50505050905090565b60078181548110610510575f80fd5b905f5260205f2090600502015f91509050805f015490806001015490806002015f9054906101000a900473ffffffffffffffffffffffffffffffffffffffff169080600301805461056090612022565b80601f016020809104026020016040519081016040528092919081815260200182805461058c90612022565b80156105d75780601f106105ae576101008083540402835291602001916105d7565b820191905f5260205f20905b8154815290600101906020018083116105ba57829003601f168201915b5050505050908060040154905085565b6105ef61144b565b5f6004838154811061060457610603612052565b5b905f5260205f2090600502019050818160030181905550505050565b600260015403610665576040517f08c379a000000000000000000000000000000000000000000000000000000000815260040161065c906120c9565b60405180910390fd5b60026001819055505f6004838154811061068257610681612052565b5b905f5260205f20906005020190505f60065f8581526020019081526020015f205f3373ffffffffffffffffffffffffffffffffffffffff1673ffffffffffffffffffffffffffffffffffffffff1681526020019081526020015f20905082815f01541015610725576040517f08c379a000000000000000000000000000000000000000000000000000000000815260040161071c90612157565b60405180910390fd5b428160020154111561076c576040517f08c379a0000000000000000000000000000000000000000000000000000000008152600401610763906121bf565b60405180910390fd5b5f61077782866114c9565b90505f825f0154111561086557826001015f9054906101000a900473ffffffffffffffffffffffffffffffffffffffff1673ffffffffffffffffffffffffffffffffffffffff1663a9059cbb33836040518363ffffffff1660e01b81526004016107e29291906121dd565b6020604051808303815f875af11580156107fe573d5f803e3d5ffd5b505050506040513d601f19601f820116820180604052508101906108229190612239565b506108648582336040518060400160405280600581526020017f436c61696d000000000000000000000000000000000000000000000000000000815250611561565b5b5f8411156109b45783825f015f82825461087f9190612291565b9250508190555083836002015f8282546108999190612291565b925050819055508360055f855f015f9054906101000a900473ffffffffffffffffffffffffffffffffffffffff1673ffffffffffffffffffffffffffffffffffffffff1673ffffffffffffffffffffffffffffffffffffffff1681526020019081526020015f205f82825461090e9190612291565b92505081905550825f015f9054906101000a900473ffffffffffffffffffffffffffffffffffffffff1673ffffffffffffffffffffffffffffffffffffffff1663a9059cbb33866040518363ffffffff1660e01b81526004016109729291906121dd565b6020604051808303815f875af115801561098e573d5f803e3d5ffd5b505050506040513d601f19601f820116820180604052508101906109b29190612239565b505b4282600101819055506109fe8585336040518060400160405280600881526020017f5769746864726177000000000000000000000000000000000000000000000000815250611561565b505050600180819055505050565b610a1461144b565b5f8273ffffffffffffffffffffffffffffffffffffffff166370a08231306040518263ffffffff1660e01b8152600401610a4e9190611e86565b602060405180830381865afa158015610a69573d5f803e3d5ffd5b505050506040513d601f19601f82011682018060405250810190610a8d91906122d8565b905080821015610ad2576040517f08c379a0000000000000000000000000000000000000000000000000000000008152600401610ac99061234d565b60405180910390fd5b60055f8473ffffffffffffffffffffffffffffffffffffffff1673ffffffffffffffffffffffffffffffffffffffff1681526020019081526020015f20548282610b1c9190612291565b1015610b5d576040517f08c379a0000000000000000000000000000000000000000000000000000000008152600401610b54906123b5565b60405180910390fd5b610b8833838573ffffffffffffffffffffffffffffffffffffffff166116469092919063ffffffff16565b505050565b610b9561144b565b610b9e5f6116cc565b565b5f805f9054906101000a900473ffffffffffffffffffffffffffffffffffffffff16905090565b6005602052805f5260405f205f915090505481565b6006602052815f5260405f20602052805f5260405f205f9150915050805f0154908060010154908060020154905083565b5f8060065f8581526020019081526020015f205f8473ffffffffffffffffffffffffffffffffffffffff1673ffffffffffffffffffffffffffffffffffffffff1681526020019081526020015f209050610c6781856114c9565b91505092915050565b600260015403610cb5576040517f08c379a0000000000000000000000000000000000000000000000000000000008152600401610cac906120c9565b60405180910390fd5b60026001819055505f8111610cff576040517f08c379a0000000000000000000000000000000000000000000000000000000008152600401610cf69061241d565b60405180910390fd5b5f60048381548110610d1457610d13612052565b5b905f5260205f20906005020190505f60065f8581526020019081526020015f205f3373ffffffffffffffffffffffffffffffffffffffff1673ffffffffffffffffffffffffffffffffffffffff1681526020019081526020015f2090505f815f01541115610e6b575f610d8782866114c9565b9050826001015f9054906101000a900473ffffffffffffffffffffffffffffffffffffffff1673ffffffffffffffffffffffffffffffffffffffff1663a9059cbb33836040518363ffffffff1660e01b8152600401610de79291906121dd565b6020604051808303815f875af1158015610e03573d5f803e3d5ffd5b505050506040513d601f19601f82011682018060405250810190610e279190612239565b50610e698582336040518060400160405280600581526020017f436c61696d000000000000000000000000000000000000000000000000000000815250611561565b505b815f015f9054906101000a900473ffffffffffffffffffffffffffffffffffffffff1673ffffffffffffffffffffffffffffffffffffffff166323b872dd3330866040518463ffffffff1660e01b8152600401610eca9392919061243b565b6020604051808303815f875af1158015610ee6573d5f803e3d5ffd5b505050506040513d601f19601f82011682018060405250810190610f0a9190612239565b5082826002015f828254610f1e9190612470565b9250508190555082815f015f828254610f379190612470565b92505081905550428160010181905550603c8260040154610f5891906124a3565b42610f639190612470565b81600201819055508260055f845f015f9054906101000a900473ffffffffffffffffffffffffffffffffffffffff1673ffffffffffffffffffffffffffffffffffffffff1673ffffffffffffffffffffffffffffffffffffffff1681526020019081526020015f205f828254610fd99190612470565b925050819055506110218484336040518060400160405280600981526020017f4465706f73697465640000000000000000000000000000000000000000000000815250611561565b5050600180819055505050565b600260015403611073576040517f08c379a000000000000000000000000000000000000000000000000000000000815260040161106a906120c9565b60405180910390fd5b60026001819055505f600482815481106110905761108f612052565b5b905f5260205f20906005020190505f60065f8481526020019081526020015f205f3373ffffffffffffffffffffffffffffffffffffffff1673ffffffffffffffffffffffffffffffffffffffff1681526020019081526020015f2090504281600201541115611134576040517f08c379a000000000000000000000000000000000000000000000000000000000815260040161112b9061252e565b60405180910390fd5b5f61113f82856114c9565b90505f8111611183576040517f08c379a000000000000000000000000000000000000000000000000000000000815260040161117a90612596565b60405180910390fd5b428260010181905550826001015f9054906101000a900473ffffffffffffffffffffffffffffffffffffffff1673ffffffffffffffffffffffffffffffffffffffff1663a9059cbb33836040518363ffffffff1660e01b81526004016111ea9291906121dd565b6020604051808303815f875af1158015611206573d5f803e3d5ffd5b505050506040513d601f19601f8201168201806040525081019061122a9190612239565b5061126c8482336040518060400160405280600781526020017f636c61696d656400000000000000000000000000000000000000000000000000815250611561565b5050506001808190555050565b61128161144b565b60046040518060a001604052808673ffffffffffffffffffffffffffffffffffffffff1681526020018573ffffffffffffffffffffffffffffffffffffffff1681526020015f815260200184815260200183815250908060018154018082558091505060019003905f5260205f2090600502015f909190919091505f820151815f015f6101000a81548173ffffffffffffffffffffffffffffffffffffffff021916908373ffffffffffffffffffffffffffffffffffffffff1602179055506020820151816001015f6101000a81548173ffffffffffffffffffffffffffffffffffffffff021916908373ffffffffffffffffffffffffffffffffffffffff160217905550604082015181600201556060820151816003015560808201518160040155505060035f8154809291906113b8906125b4565b919050555050505050565b6113cb61144b565b5f73ffffffffffffffffffffffffffffffffffffffff168173ffffffffffffffffffffffffffffffffffffffff1603611439576040517f08c379a00000000000000000000000000000000000000000000000000000000081526004016114309061266b565b60405180910390fd5b611442816116cc565b50565b60035481565b61145361178d565b73ffffffffffffffffffffffffffffffffffffffff16611471610ba0565b73ffffffffffffffffffffffffffffffffffffffff16146114c7576040517f08c379a00000000000000000000000000000000000000000000000000000000081526004016114be906126d3565b60405180910390fd5b565b5f80600483815481106114df576114de612052565b5b905f5260205f20906005020190505f603c8560010154426115009190612291565b61150a919061271e565b9050816004015481111561152057816004015490505b8160030154606461016d83885f015461153991906124a3565b611543919061271e565b61154d919061271e565b61155791906124a3565b9250505092915050565b60076040518060a001604052808681526020018581526020018473ffffffffffffffffffffffffffffffffffffffff16815260200183815260200142815250908060018154018082558091505060019003905f5260205f2090600502015f909190919091505f820151815f0155602082015181600101556040820151816002015f6101000a81548173ffffffffffffffffffffffffffffffffffffffff021916908373ffffffffffffffffffffffffffffffffffffffff1602179055506060820151816003019081611633919061290f565b5060808201518160040155505050505050565b6116c78363a9059cbb60e01b84846040516024016116659291906121dd565b604051602081830303815290604052907bffffffffffffffffffffffffffffffffffffffffffffffffffffffff19166020820180517bffffffffffffffffffffffffffffffffffffffffffffffffffffffff8381831617835250505050611794565b505050565b5f805f9054906101000a900473ffffffffffffffffffffffffffffffffffffffff169050815f806101000a81548173ffffffffffffffffffffffffffffffffffffffff021916908373ffffffffffffffffffffffffffffffffffffffff1602179055508173ffffffffffffffffffffffffffffffffffffffff168173ffffffffffffffffffffffffffffffffffffffff167f8be0079c531659141344cd1fd0a4f28419497f9722a3daafe3b4186f6b6457e060405160405180910390a35050565b5f33905090565b5f6117f5826040518060400160405280602081526020017f5361666545524332303a206c6f772d6c6576656c2063616c6c206661696c65648152508573ffffffffffffffffffffffffffffffffffffffff166118599092919063ffffffff16565b90505f8151111561185457808060200190518101906118149190612239565b611853576040517f08c379a000000000000000000000000000000000000000000000000000000000815260040161184a90612a4e565b60405180910390fd5b5b505050565b606061186784845f85611870565b90509392505050565b6060824710156118b5576040517f08c379a00000000000000000000000000000000000000000000000000000000081526004016118ac90612adc565b60405180910390fd5b6118be85611980565b6118fd576040517f08c379a00000000000000000000000000000000000000000000000000000000081526004016118f490612b44565b60405180910390fd5b5f808673ffffffffffffffffffffffffffffffffffffffff1685876040516119259190612ba6565b5f6040518083038185875af1925050503d805f811461195f576040519150601f19603f3d011682016040523d82523d5f602084013e611964565b606091505b50915091506119748282866119a2565b92505050949350505050565b5f808273ffffffffffffffffffffffffffffffffffffffff163b119050919050565b606083156119b257829050611a01565b5f835111156119c45782518084602001fd5b816040517f08c379a00000000000000000000000000000000000000000000000000000000081526004016119f89190612bbc565b60405180910390fd5b9392505050565b5f80fd5b5f819050919050565b611a1e81611a0c565b8114611a28575f80fd5b50565b5f81359050611a3981611a15565b92915050565b5f60208284031215611a5457611a53611a08565b5b5f611a6184828501611a2b565b91505092915050565b5f73ffffffffffffffffffffffffffffffffffffffff82169050919050565b5f819050919050565b5f611aac611aa7611aa284611a6a565b611a89565b611a6a565b9050919050565b5f611abd82611a92565b9050919050565b5f611ace82611ab3565b9050919050565b611ade81611ac4565b82525050565b611aed81611a0c565b82525050565b5f60a082019050611b065f830188611ad5565b611b136020830187611ad5565b611b206040830186611ae4565b611b2d6060830185611ae4565b611b3a6080830184611ae4565b9695505050505050565b5f81519050919050565b5f82825260208201905092915050565b5f819050602082019050919050565b611b7681611a0c565b82525050565b5f611b8682611a6a565b9050919050565b611b9681611b7c565b82525050565b5f81519050919050565b5f82825260208201905092915050565b8281835e5f83830152505050565b5f601f19601f8301169050919050565b5f611bde82611b9c565b611be88185611ba6565b9350611bf8818560208601611bb6565b611c0181611bc4565b840191505092915050565b5f60a083015f830151611c215f860182611b6d565b506020830151611c346020860182611b6d565b506040830151611c476040860182611b8d565b5060608301518482036060860152611c5f8282611bd4565b9150506080830151611c746080860182611b6d565b508091505092915050565b5f611c8a8383611c0c565b905092915050565b5f602082019050919050565b5f611ca882611b44565b611cb28185611b4e565b935083602082028501611cc485611b5e565b805f5b85811015611cff5784840389528151611ce08582611c7f565b9450611ceb83611c92565b925060208a01995050600181019050611cc7565b50829750879550505050505092915050565b5f6020820190508181035f830152611d298184611c9e565b905092915050565b611d3a81611b7c565b82525050565b5f82825260208201905092915050565b5f611d5a82611b9c565b611d648185611d40565b9350611d74818560208601611bb6565b611d7d81611bc4565b840191505092915050565b5f60a082019050611d9b5f830188611ae4565b611da86020830187611ae4565b611db56040830186611d31565b8181036060830152611dc78185611d50565b9050611dd66080830184611ae4565b9695505050505050565b5f8060408385031215611df657611df5611a08565b5b5f611e0385828601611a2b565b9250506020611e1485828601611a2b565b9150509250929050565b611e2781611b7c565b8114611e31575f80fd5b50565b5f81359050611e4281611e1e565b92915050565b5f8060408385031215611e5e57611e5d611a08565b5b5f611e6b85828601611e34565b9250506020611e7c85828601611a2b565b9150509250929050565b5f602082019050611e995f830184611d31565b92915050565b5f60208284031215611eb457611eb3611a08565b5b5f611ec184828501611e34565b91505092915050565b5f602082019050611edd5f830184611ae4565b92915050565b5f8060408385031215611ef957611ef8611a08565b5b5f611f0685828601611a2b565b9250506020611f1785828601611e34565b9150509250929050565b5f606082019050611f345f830186611ae4565b611f416020830185611ae4565b611f4e6040830184611ae4565b949350505050565b5f611f6082611b7c565b9050919050565b611f7081611f56565b8114611f7a575f80fd5b50565b5f81359050611f8b81611f67565b92915050565b5f805f8060808587031215611fa957611fa8611a08565b5b5f611fb687828801611f7d565b9450506020611fc787828801611f7d565b9350506040611fd887828801611a2b565b9250506060611fe987828801611a2b565b91505092959194509250565b7f4e487b71000000000000000000000000000000000000000000000000000000005f52602260045260245ffd5b5f600282049050600182168061203957607f821691505b60208210810361204c5761204b611ff5565b5b50919050565b7f4e487b71000000000000000000000000000000000000000000000000000000005f52603260045260245ffd5b7f5265656e7472616e637947756172643a207265656e7472616e742063616c6c005f82015250565b5f6120b3601f83611d40565b91506120be8261207f565b602082019050919050565b5f6020820190508181035f8301526120e0816120a7565b9050919050565b7f576974686472617720616d6f756e742065786365656473207468652062616c615f8201527f6e63652100000000000000000000000000000000000000000000000000000000602082015250565b5f612141602483611d40565b915061214c826120e7565b604082019050919050565b5f6020820190508181035f83015261216e81612135565b9050919050565b7f4c6f636b206973206163746976652100000000000000000000000000000000005f82015250565b5f6121a9600f83611d40565b91506121b482612175565b602082019050919050565b5f6020820190508181035f8301526121d68161219d565b9050919050565b5f6040820190506121f05f830185611d31565b6121fd6020830184611ae4565b9392505050565b5f8115159050919050565b61221881612204565b8114612222575f80fd5b50565b5f815190506122338161220f565b92915050565b5f6020828403121561224e5761224d611a08565b5b5f61225b84828501612225565b91505092915050565b7f4e487b71000000000000000000000000000000000000000000000000000000005f52601160045260245ffd5b5f61229b82611a0c565b91506122a683611a0c565b92508282039050818111156122be576122bd612264565b5b92915050565b5f815190506122d281611a15565b92915050565b5f602082840312156122ed576122ec611a08565b5b5f6122fa848285016122c4565b91505092915050565b7f416d6f756e7420657863656564732062616c616e6365000000000000000000005f82015250565b5f612337601683611d40565b915061234282612303565b602082019050919050565b5f6020820190508181035f8301526123648161232b565b9050919050565b7f63616e74207769746864726177206465706f736974656420746f6b656e7300005f82015250565b5f61239f601e83611d40565b91506123aa8261236b565b602082019050919050565b5f6020820190508181035f8301526123cc81612393565b9050919050565b7f416d6f756e742073686f756c642062652067726561746572207468616e2030005f82015250565b5f612407601f83611d40565b9150612412826123d3565b602082019050919050565b5f6020820190508181035f830152612434816123fb565b9050919050565b5f60608201905061244e5f830186611d31565b61245b6020830185611d31565b6124686040830184611ae4565b949350505050565b5f61247a82611a0c565b915061248583611a0c565b925082820190508082111561249d5761249c612264565b5b92915050565b5f6124ad82611a0c565b91506124b883611a0c565b92508282026124c681611a0c565b915082820484148315176124dd576124dc612264565b5b5092915050565b7f4c6f636b206973206163746976650000000000000000000000000000000000005f82015250565b5f612518600e83611d40565b9150612523826124e4565b602082019050919050565b5f6020820190508181035f8301526125458161250c565b9050919050565b7f4e6f2072657761726420746f20636c61696d00000000000000000000000000005f82015250565b5f612580601283611d40565b915061258b8261254c565b602082019050919050565b5f6020820190508181035f8301526125ad81612574565b9050919050565b5f6125be82611a0c565b91507fffffffffffffffffffffffffffffffffffffffffffffffffffffffffffffffff82036125f0576125ef612264565b5b600182019050919050565b7f4f776e61626c653a206e6577206f776e657220697320746865207a65726f20615f8201527f6464726573730000000000000000000000000000000000000000000000000000602082015250565b5f612655602683611d40565b9150612660826125fb565b604082019050919050565b5f6020820190508181035f83015261268281612649565b9050919050565b7f4f776e61626c653a2063616c6c6572206973206e6f7420746865206f776e65725f82015250565b5f6126bd602083611d40565b91506126c882612689565b602082019050919050565b5f6020820190508181035f8301526126ea816126b1565b9050919050565b7f4e487b71000000000000000000000000000000000000000000000000000000005f52601260045260245ffd5b5f61272882611a0c565b915061273383611a0c565b925082612743576127426126f1565b5b828204905092915050565b7f4e487b71000000000000000000000000000000000000000000000000000000005f52604160045260245ffd5b5f819050815f5260205f209050919050565b5f6020601f8301049050919050565b5f82821b905092915050565b5f600883026127d77fffffffffffffffffffffffffffffffffffffffffffffffffffffffffffffffff8261279c565b6127e1868361279c565b95508019841693508086168417925050509392505050565b5f61281361280e61280984611a0c565b611a89565b611a0c565b9050919050565b5f819050919050565b61282c836127f9565b6128406128388261281a565b8484546127a8565b825550505050565b5f90565b612854612848565b61285f818484612823565b505050565b5b81811015612882576128775f8261284c565b600181019050612865565b5050565b601f8211156128c7576128988161277b565b6128a18461278d565b810160208510156128b0578190505b6128c46128bc8561278d565b830182612864565b50505b505050565b5f82821c905092915050565b5f6128e75f19846008026128cc565b1980831691505092915050565b5f6128ff83836128d8565b9150826002028217905092915050565b61291882611b9c565b67ffffffffffffffff8111156129315761293061274e565b5b61293b8254612022565b612946828285612886565b5f60209050601f831160018114612977575f8415612965578287015190505b61296f85826128f4565b8655506129d6565b601f1984166129858661277b565b5f5b828110156129ac57848901518255600182019150602085019450602081019050612987565b868310156129c957848901516129c5601f8916826128d8565b8355505b6001600288020188555050505b505050505050565b7f5361666545524332303a204552433230206f7065726174696f6e20646964206e5f8201527f6f74207375636365656400000000000000000000000000000000000000000000602082015250565b5f612a38602a83611d40565b9150612a43826129de565b604082019050919050565b5f6020820190508181035f830152612a6581612a2c565b9050919050565b7f416464726573733a20696e73756666696369656e742062616c616e636520666f5f8201527f722063616c6c0000000000000000000000000000000000000000000000000000602082015250565b5f612ac6602683611d40565b9150612ad182612a6c565b604082019050919050565b5f6020820190508181035f830152612af381612aba565b9050919050565b7f416464726573733a2063616c6c20746f206e6f6e2d636f6e74726163740000005f82015250565b5f612b2e601d83611d40565b9150612b3982612afa565b602082019050919050565b5f6020820190508181035f830152612b5b81612b22565b9050919050565b5f81519050919050565b5f81905092915050565b5f612b8082612b62565b612b8a8185612b6c565b9350612b9a818560208601611bb6565b80840191505092915050565b5f612bb18284612b76565b915081905092915050565b5f6020820190508181035f830152612bd48184611d50565b90509291505056fea2646970667358221220498799b9d3ebbacbc11bd7d83508e8203c7fe68f0908b1e53f9613b0b3e1b0b464736f6c63430008190033",
			"opcodes": "PUSH1 0x80 PUSH1 0x40 MSTORE PUSH8 0xDE0B6B3A7640000 PUSH1 0x2 SSTORE CALLVALUE DUP1 ISZERO PUSH2 0x1B JUMPI PUSH0 DUP1 REVERT JUMPDEST POP PUSH2 0x38 PUSH2 0x2D PUSH2 0x44 PUSH1 0x20 SHL PUSH1 0x20 SHR JUMP JUMPDEST PUSH2 0x4B PUSH1 0x20 SHL PUSH1 0x20 SHR JUMP JUMPDEST PUSH1 0x1 DUP1 DUP2 SWAP1 SSTORE POP PUSH2 0x10C JUMP JUMPDEST PUSH0 CALLER SWAP1 POP SWAP1 JUMP JUMPDEST PUSH0 DUP1 PUSH0 SWAP1 SLOAD SWAP1 PUSH2 0x100 EXP SWAP1 DIV PUSH20 0xFFFFFFFFFFFFFFFFFFFFFFFFFFFFFFFFFFFFFFFF AND SWAP1 POP DUP2 PUSH0 DUP1 PUSH2 0x100 EXP DUP2 SLOAD DUP2 PUSH20 0xFFFFFFFFFFFFFFFFFFFFFFFFFFFFFFFFFFFFFFFF MUL NOT AND SWAP1 DUP4 PUSH20 0xFFFFFFFFFFFFFFFFFFFFFFFFFFFFFFFFFFFFFFFF AND MUL OR SWAP1 SSTORE POP DUP2 PUSH20 0xFFFFFFFFFFFFFFFFFFFFFFFFFFFFFFFFFFFFFFFF AND DUP2 PUSH20 0xFFFFFFFFFFFFFFFFFFFFFFFFFFFFFFFFFFFFFFFF AND PUSH32 0x8BE0079C531659141344CD1FD0A4F28419497F9722A3DAAFE3B4186F6B6457E0 PUSH1 0x40 MLOAD PUSH1 0x40 MLOAD DUP1 SWAP2 SUB SWAP1 LOG3 POP POP JUMP JUMPDEST PUSH2 0x2C12 DUP1 PUSH2 0x119 PUSH0 CODECOPY PUSH0 RETURN INVALID PUSH1 0x80 PUSH1 0x40 MSTORE CALLVALUE DUP1 ISZERO PUSH2 0xF JUMPI PUSH0 DUP1 REVERT JUMPDEST POP PUSH1 0x4 CALLDATASIZE LT PUSH2 0xFE JUMPI PUSH0 CALLDATALOAD PUSH1 0xE0 SHR DUP1 PUSH4 0x907B503D GT PUSH2 0x95 JUMPI DUP1 PUSH4 0xAE169A50 GT PUSH2 0x64 JUMPI DUP1 PUSH4 0xAE169A50 EQ PUSH2 0x2B2 JUMPI DUP1 PUSH4 0xC20632BA EQ PUSH2 0x2CE JUMPI DUP1 PUSH4 0xF2FDE38B EQ PUSH2 0x2EA JUMPI DUP1 PUSH4 0xF525CB68 EQ PUSH2 0x306 JUMPI PUSH2 0xFE JUMP JUMPDEST DUP1 PUSH4 0x907B503D EQ PUSH2 0x204 JUMPI DUP1 PUSH4 0x93F1A40B EQ PUSH2 0x234 JUMPI DUP1 PUSH4 0x98969E82 EQ PUSH2 0x266 JUMPI DUP1 PUSH4 0xA2C2F1B0 EQ PUSH2 0x296 JUMPI PUSH2 0xFE JUMP JUMPDEST DUP1 PUSH4 0x441A3E70 GT PUSH2 0xD1 JUMPI DUP1 PUSH4 0x441A3E70 EQ PUSH2 0x1A4 JUMPI DUP1 PUSH4 0x6EA056A9 EQ PUSH2 0x1C0 JUMPI DUP1 PUSH4 0x715018A6 EQ PUSH2 0x1DC JUMPI DUP1 PUSH4 0x8DA5CB5B EQ PUSH2 0x1E6 JUMPI PUSH2 0xFE JUMP JUMPDEST DUP1 PUSH4 0x1526FE27 EQ PUSH2 0x102 JUMPI DUP1 PUSH4 0x31276CF8 EQ PUSH2 0x136 JUMPI DUP1 PUSH4 0x34C1F944 EQ PUSH2 0x154 JUMPI DUP1 PUSH4 0x39739B99 EQ PUSH2 0x188 JUMPI JUMPDEST PUSH0 DUP1 REVERT JUMPDEST PUSH2 0x11C PUSH1 0x4 DUP1 CALLDATASIZE SUB DUP2 ADD SWAP1 PUSH2 0x117 SWAP2 SWAP1 PUSH2 0x1A3F JUMP JUMPDEST PUSH2 0x324 JUMP JUMPDEST PUSH1 0x40 MLOAD PUSH2 0x12D SWAP6 SWAP5 SWAP4 SWAP3 SWAP2 SWAP1 PUSH2 0x1AF3 JUMP JUMPDEST PUSH1 0x40 MLOAD DUP1 SWAP2 SUB SWAP1 RETURN JUMPDEST PUSH2 0x13E PUSH2 0x3A3 JUMP JUMPDEST PUSH1 0x40 MLOAD PUSH2 0x14B SWAP2 SWAP1 PUSH2 0x1D11 JUMP JUMPDEST PUSH1 0x40 MLOAD DUP1 SWAP2 SUB SWAP1 RETURN JUMPDEST PUSH2 0x16E PUSH1 0x4 DUP1 CALLDATASIZE SUB DUP2 ADD SWAP1 PUSH2 0x169 SWAP2 SWAP1 PUSH2 0x1A3F JUMP JUMPDEST PUSH2 0x501 JUMP JUMPDEST PUSH1 0x40 MLOAD PUSH2 0x17F SWAP6 SWAP5 SWAP4 SWAP3 SWAP2 SWAP1 PUSH2 0x1D88 JUMP JUMPDEST PUSH1 0x40 MLOAD DUP1 SWAP2 SUB SWAP1 RETURN JUMPDEST PUSH2 0x1A2 PUSH1 0x4 DUP1 CALLDATASIZE SUB DUP2 ADD SWAP1 PUSH2 0x19D SWAP2 SWAP1 PUSH2 0x1DE0 JUMP JUMPDEST PUSH2 0x5E7 JUMP JUMPDEST STOP JUMPDEST PUSH2 0x1BE PUSH1 0x4 DUP1 CALLDATASIZE SUB DUP2 ADD SWAP1 PUSH2 0x1B9 SWAP2 SWAP1 PUSH2 0x1DE0 JUMP JUMPDEST PUSH2 0x620 JUMP JUMPDEST STOP JUMPDEST PUSH2 0x1DA PUSH1 0x4 DUP1 CALLDATASIZE SUB DUP2 ADD SWAP1 PUSH2 0x1D5 SWAP2 SWAP1 PUSH2 0x1E48 JUMP JUMPDEST PUSH2 0xA0C JUMP JUMPDEST STOP JUMPDEST PUSH2 0x1E4 PUSH2 0xB8D JUMP JUMPDEST STOP JUMPDEST PUSH2 0x1EE PUSH2 0xBA0 JUMP JUMPDEST PUSH1 0x40 MLOAD PUSH2 0x1FB SWAP2 SWAP1 PUSH2 0x1E86 JUMP JUMPDEST PUSH1 0x40 MLOAD DUP1 SWAP2 SUB SWAP1 RETURN JUMPDEST PUSH2 0x21E PUSH1 0x4 DUP1 CALLDATASIZE SUB DUP2 ADD SWAP1 PUSH2 0x219 SWAP2 SWAP1 PUSH2 0x1E9F JUMP JUMPDEST PUSH2 0xBC7 JUMP JUMPDEST PUSH1 0x40 MLOAD PUSH2 0x22B SWAP2 SWAP1 PUSH2 0x1ECA JUMP JUMPDEST PUSH1 0x40 MLOAD DUP1 SWAP2 SUB SWAP1 RETURN JUMPDEST PUSH2 0x24E PUSH1 0x4 DUP1 CALLDATASIZE SUB DUP2 ADD SWAP1 PUSH2 0x249 SWAP2 SWAP1 PUSH2 0x1EE3 JUMP JUMPDEST PUSH2 0xBDC JUMP JUMPDEST PUSH1 0x40 MLOAD PUSH2 0x25D SWAP4 SWAP3 SWAP2 SWAP1 PUSH2 0x1F21 JUMP JUMPDEST PUSH1 0x40 MLOAD DUP1 SWAP2 SUB SWAP1 RETURN JUMPDEST PUSH2 0x280 PUSH1 0x4 DUP1 CALLDATASIZE SUB DUP2 ADD SWAP1 PUSH2 0x27B SWAP2 SWAP1 PUSH2 0x1EE3 JUMP JUMPDEST PUSH2 0xC0D JUMP JUMPDEST PUSH1 0x40 MLOAD PUSH2 0x28D SWAP2 SWAP1 PUSH2 0x1ECA JUMP JUMPDEST PUSH1 0x40 MLOAD DUP1 SWAP2 SUB SWAP1 RETURN JUMPDEST PUSH2 0x2B0 PUSH1 0x4 DUP1 CALLDATASIZE SUB DUP2 ADD SWAP1 PUSH2 0x2AB SWAP2 SWAP1 PUSH2 0x1DE0 JUMP JUMPDEST PUSH2 0xC70 JUMP JUMPDEST STOP JUMPDEST PUSH2 0x2CC PUSH1 0x4 DUP1 CALLDATASIZE SUB DUP2 ADD SWAP1 PUSH2 0x2C7 SWAP2 SWAP1 PUSH2 0x1A3F JUMP JUMPDEST PUSH2 0x102E JUMP JUMPDEST STOP JUMPDEST PUSH2 0x2E8 PUSH1 0x4 DUP1 CALLDATASIZE SUB DUP2 ADD SWAP1 PUSH2 0x2E3 SWAP2 SWAP1 PUSH2 0x1F91 JUMP JUMPDEST PUSH2 0x1279 JUMP JUMPDEST STOP JUMPDEST PUSH2 0x304 PUSH1 0x4 DUP1 CALLDATASIZE SUB DUP2 ADD SWAP1 PUSH2 0x2FF SWAP2 SWAP1 PUSH2 0x1E9F JUMP JUMPDEST PUSH2 0x13C3 JUMP JUMPDEST STOP JUMPDEST PUSH2 0x30E PUSH2 0x1445 JUMP JUMPDEST PUSH1 0x40 MLOAD PUSH2 0x31B SWAP2 SWAP1 PUSH2 0x1ECA JUMP JUMPDEST PUSH1 0x40 MLOAD DUP1 SWAP2 SUB SWAP1 RETURN JUMPDEST PUSH1 0x4 DUP2 DUP2 SLOAD DUP2 LT PUSH2 0x333 JUMPI PUSH0 DUP1 REVERT JUMPDEST SWAP1 PUSH0 MSTORE PUSH1 0x20 PUSH0 KECCAK256 SWAP1 PUSH1 0x5 MUL ADD PUSH0 SWAP2 POP SWAP1 POP DUP1 PUSH0 ADD PUSH0 SWAP1 SLOAD SWAP1 PUSH2 0x100 EXP SWAP1 DIV PUSH20 0xFFFFFFFFFFFFFFFFFFFFFFFFFFFFFFFFFFFFFFFF AND SWAP1 DUP1 PUSH1 0x1 ADD PUSH0 SWAP1 SLOAD SWAP1 PUSH2 0x100 EXP SWAP1 DIV PUSH20 0xFFFFFFFFFFFFFFFFFFFFFFFFFFFFFFFFFFFFFFFF AND SWAP1 DUP1 PUSH1 0x2 ADD SLOAD SWAP1 DUP1 PUSH1 0x3 ADD SLOAD SWAP1 DUP1 PUSH1 0x4 ADD SLOAD SWAP1 POP DUP6 JUMP JUMPDEST PUSH1 0x60 PUSH1 0x7 DUP1 SLOAD DUP1 PUSH1 0x20 MUL PUSH1 0x20 ADD PUSH1 0x40 MLOAD SWAP1 DUP2 ADD PUSH1 0x40 MSTORE DUP1 SWAP3 SWAP2 SWAP1 DUP2 DUP2 MSTORE PUSH1 0x20 ADD PUSH0 SWAP1 JUMPDEST DUP3 DUP3 LT ISZERO PUSH2 0x4F8 JUMPI DUP4 DUP3 SWAP1 PUSH0 MSTORE PUSH1 0x20 PUSH0 KECCAK256 SWAP1 PUSH1 0x5 MUL ADD PUSH1 0x40 MLOAD DUP1 PUSH1 0xA0 ADD PUSH1 0x40 MSTORE SWAP1 DUP2 PUSH0 DUP3 ADD SLOAD DUP2 MSTORE PUSH1 0x20 ADD PUSH1 0x1 DUP3 ADD SLOAD DUP2 MSTORE PUSH1 0x20 ADD PUSH1 0x2 DUP3 ADD PUSH0 SWAP1 SLOAD SWAP1 PUSH2 0x100 EXP SWAP1 DIV PUSH20 0xFFFFFFFFFFFFFFFFFFFFFFFFFFFFFFFFFFFFFFFF AND PUSH20 0xFFFFFFFFFFFFFFFFFFFFFFFFFFFFFFFFFFFFFFFF AND PUSH20 0xFFFFFFFFFFFFFFFFFFFFFFFFFFFFFFFFFFFFFFFF AND DUP2 MSTORE PUSH1 0x20 ADD PUSH1 0x3 DUP3 ADD DUP1 SLOAD PUSH2 0x45F SWAP1 PUSH2 0x2022 JUMP JUMPDEST DUP1 PUSH1 0x1F ADD PUSH1 0x20 DUP1 SWAP2 DIV MUL PUSH1 0x20 ADD PUSH1 0x40 MLOAD SWAP1 DUP2 ADD PUSH1 0x40 MSTORE DUP1 SWAP3 SWAP2 SWAP1 DUP2 DUP2 MSTORE PUSH1 0x20 ADD DUP3 DUP1 SLOAD PUSH2 0x48B SWAP1 PUSH2 0x2022 JUMP JUMPDEST DUP1 ISZERO PUSH2 0x4D6 JUMPI DUP1 PUSH1 0x1F LT PUSH2 0x4AD JUMPI PUSH2 0x100 DUP1 DUP4 SLOAD DIV MUL DUP4 MSTORE SWAP2 PUSH1 0x20 ADD SWAP2 PUSH2 0x4D6 JUMP JUMPDEST DUP3 ADD SWAP2 SWAP1 PUSH0 MSTORE PUSH1 0x20 PUSH0 KECCAK256 SWAP1 JUMPDEST DUP2 SLOAD DUP2 MSTORE SWAP1 PUSH1 0x1 ADD SWAP1 PUSH1 0x20 ADD DUP1 DUP4 GT PUSH2 0x4B9 JUMPI DUP3 SWAP1 SUB PUSH1 0x1F AND DUP3 ADD SWAP2 JUMPDEST POP POP POP POP POP DUP2 MSTORE PUSH1 0x20 ADD PUSH1 0x4 DUP3 ADD SLOAD DUP2 MSTORE POP POP DUP2 MSTORE PUSH1 0x20 ADD SWAP1 PUSH1 0x1 ADD SWAP1 PUSH2 0x3C6 JUMP JUMPDEST POP POP POP POP SWAP1 POP SWAP1 JUMP JUMPDEST PUSH1 0x7 DUP2 DUP2 SLOAD DUP2 LT PUSH2 0x510 JUMPI PUSH0 DUP1 REVERT JUMPDEST SWAP1 PUSH0 MSTORE PUSH1 0x20 PUSH0 KECCAK256 SWAP1 PUSH1 0x5 MUL ADD PUSH0 SWAP2 POP SWAP1 POP DUP1 PUSH0 ADD SLOAD SWAP1 DUP1 PUSH1 0x1 ADD SLOAD SWAP1 DUP1 PUSH1 0x2 ADD PUSH0 SWAP1 SLOAD SWAP1 PUSH2 0x100 EXP SWAP1 DIV PUSH20 0xFFFFFFFFFFFFFFFFFFFFFFFFFFFFFFFFFFFFFFFF AND SWAP1 DUP1 PUSH1 0x3 ADD DUP1 SLOAD PUSH2 0x560 SWAP1 PUSH2 0x2022 JUMP JUMPDEST DUP1 PUSH1 0x1F ADD PUSH1 0x20 DUP1 SWAP2 DIV MUL PUSH1 0x20 ADD PUSH1 0x40 MLOAD SWAP1 DUP2 ADD PUSH1 0x40 MSTORE DUP1 SWAP3 SWAP2 SWAP1 DUP2 DUP2 MSTORE PUSH1 0x20 ADD DUP3 DUP1 SLOAD PUSH2 0x58C SWAP1 PUSH2 0x2022 JUMP JUMPDEST DUP1 ISZERO PUSH2 0x5D7 JUMPI DUP1 PUSH1 0x1F LT PUSH2 0x5AE JUMPI PUSH2 0x100 DUP1 DUP4 SLOAD DIV MUL DUP4 MSTORE SWAP2 PUSH1 0x20 ADD SWAP2 PUSH2 0x5D7 JUMP JUMPDEST DUP3 ADD SWAP2 SWAP1 PUSH0 MSTORE PUSH1 0x20 PUSH0 KECCAK256 SWAP1 JUMPDEST DUP2 SLOAD DUP2 MSTORE SWAP1 PUSH1 0x1 ADD SWAP1 PUSH1 0x20 ADD DUP1 DUP4 GT PUSH2 0x5BA JUMPI DUP3 SWAP1 SUB PUSH1 0x1F AND DUP3 ADD SWAP2 JUMPDEST POP POP POP POP POP SWAP1 DUP1 PUSH1 0x4 ADD SLOAD SWAP1 POP DUP6 JUMP JUMPDEST PUSH2 0x5EF PUSH2 0x144B JUMP JUMPDEST PUSH0 PUSH1 0x4 DUP4 DUP2 SLOAD DUP2 LT PUSH2 0x604 JUMPI PUSH2 0x603 PUSH2 0x2052 JUMP JUMPDEST JUMPDEST SWAP1 PUSH0 MSTORE PUSH1 0x20 PUSH0 KECCAK256 SWAP1 PUSH1 0x5 MUL ADD SWAP1 POP DUP2 DUP2 PUSH1 0x3 ADD DUP2 SWAP1 SSTORE POP POP POP POP JUMP JUMPDEST PUSH1 0x2 PUSH1 0x1 SLOAD SUB PUSH2 0x665 JUMPI PUSH1 0x40 MLOAD PUSH32 0x8C379A000000000000000000000000000000000000000000000000000000000 DUP2 MSTORE PUSH1 0x4 ADD PUSH2 0x65C SWAP1 PUSH2 0x20C9 JUMP JUMPDEST PUSH1 0x40 MLOAD DUP1 SWAP2 SUB SWAP1 REVERT JUMPDEST PUSH1 0x2 PUSH1 0x1 DUP2 SWAP1 SSTORE POP PUSH0 PUSH1 0x4 DUP4 DUP2 SLOAD DUP2 LT PUSH2 0x682 JUMPI PUSH2 0x681 PUSH2 0x2052 JUMP JUMPDEST JUMPDEST SWAP1 PUSH0 MSTORE PUSH1 0x20 PUSH0 KECCAK256 SWAP1 PUSH1 0x5 MUL ADD SWAP1 POP PUSH0 PUSH1 0x6 PUSH0 DUP6 DUP2 MSTORE PUSH1 0x20 ADD SWAP1 DUP2 MSTORE PUSH1 0x20 ADD PUSH0 KECCAK256 PUSH0 CALLER PUSH20 0xFFFFFFFFFFFFFFFFFFFFFFFFFFFFFFFFFFFFFFFF AND PUSH20 0xFFFFFFFFFFFFFFFFFFFFFFFFFFFFFFFFFFFFFFFF AND DUP2 MSTORE PUSH1 0x20 ADD SWAP1 DUP2 MSTORE PUSH1 0x20 ADD PUSH0 KECCAK256 SWAP1 POP DUP3 DUP2 PUSH0 ADD SLOAD LT ISZERO PUSH2 0x725 JUMPI PUSH1 0x40 MLOAD PUSH32 0x8C379A000000000000000000000000000000000000000000000000000000000 DUP2 MSTORE PUSH1 0x4 ADD PUSH2 0x71C SWAP1 PUSH2 0x2157 JUMP JUMPDEST PUSH1 0x40 MLOAD DUP1 SWAP2 SUB SWAP1 REVERT JUMPDEST TIMESTAMP DUP2 PUSH1 0x2 ADD SLOAD GT ISZERO PUSH2 0x76C JUMPI PUSH1 0x40 MLOAD PUSH32 0x8C379A000000000000000000000000000000000000000000000000000000000 DUP2 MSTORE PUSH1 0x4 ADD PUSH2 0x763 SWAP1 PUSH2 0x21BF JUMP JUMPDEST PUSH1 0x40 MLOAD DUP1 SWAP2 SUB SWAP1 REVERT JUMPDEST PUSH0 PUSH2 0x777 DUP3 DUP7 PUSH2 0x14C9 JUMP JUMPDEST SWAP1 POP PUSH0 DUP3 PUSH0 ADD SLOAD GT ISZERO PUSH2 0x865 JUMPI DUP3 PUSH1 0x1 ADD PUSH0 SWAP1 SLOAD SWAP1 PUSH2 0x100 EXP SWAP1 DIV PUSH20 0xFFFFFFFFFFFFFFFFFFFFFFFFFFFFFFFFFFFFFFFF AND PUSH20 0xFFFFFFFFFFFFFFFFFFFFFFFFFFFFFFFFFFFFFFFF AND PUSH4 0xA9059CBB CALLER DUP4 PUSH1 0x40 MLOAD DUP4 PUSH4 0xFFFFFFFF AND PUSH1 0xE0 SHL DUP2 MSTORE PUSH1 0x4 ADD PUSH2 0x7E2 SWAP3 SWAP2 SWAP1 PUSH2 0x21DD JUMP JUMPDEST PUSH1 0x20 PUSH1 0x40 MLOAD DUP1 DUP4 SUB DUP2 PUSH0 DUP8 GAS CALL ISZERO DUP1 ISZERO PUSH2 0x7FE JUMPI RETURNDATASIZE PUSH0 DUP1 RETURNDATACOPY RETURNDATASIZE PUSH0 REVERT JUMPDEST POP POP POP POP PUSH1 0x40 MLOAD RETURNDATASIZE PUSH1 0x1F NOT PUSH1 0x1F DUP3 ADD AND DUP3 ADD DUP1 PUSH1 0x40 MSTORE POP DUP2 ADD SWAP1 PUSH2 0x822 SWAP2 SWAP1 PUSH2 0x2239 JUMP JUMPDEST POP PUSH2 0x864 DUP6 DUP3 CALLER PUSH1 0x40 MLOAD DUP1 PUSH1 0x40 ADD PUSH1 0x40 MSTORE DUP1 PUSH1 0x5 DUP2 MSTORE PUSH1 0x20 ADD PUSH32 0x436C61696D000000000000000000000000000000000000000000000000000000 DUP2 MSTORE POP PUSH2 0x1561 JUMP JUMPDEST JUMPDEST PUSH0 DUP5 GT ISZERO PUSH2 0x9B4 JUMPI DUP4 DUP3 PUSH0 ADD PUSH0 DUP3 DUP3 SLOAD PUSH2 0x87F SWAP2 SWAP1 PUSH2 0x2291 JUMP JUMPDEST SWAP3 POP POP DUP2 SWAP1 SSTORE POP DUP4 DUP4 PUSH1 0x2 ADD PUSH0 DUP3 DUP3 SLOAD PUSH2 0x899 SWAP2 SWAP1 PUSH2 0x2291 JUMP JUMPDEST SWAP3 POP POP DUP2 SWAP1 SSTORE POP DUP4 PUSH1 0x5 PUSH0 DUP6 PUSH0 ADD PUSH0 SWAP1 SLOAD SWAP1 PUSH2 0x100 EXP SWAP1 DIV PUSH20 0xFFFFFFFFFFFFFFFFFFFFFFFFFFFFFFFFFFFFFFFF AND PUSH20 0xFFFFFFFFFFFFFFFFFFFFFFFFFFFFFFFFFFFFFFFF AND PUSH20 0xFFFFFFFFFFFFFFFFFFFFFFFFFFFFFFFFFFFFFFFF AND DUP2 MSTORE PUSH1 0x20 ADD SWAP1 DUP2 MSTORE PUSH1 0x20 ADD PUSH0 KECCAK256 PUSH0 DUP3 DUP3 SLOAD PUSH2 0x90E SWAP2 SWAP1 PUSH2 0x2291 JUMP JUMPDEST SWAP3 POP POP DUP2 SWAP1 SSTORE POP DUP3 PUSH0 ADD PUSH0 SWAP1 SLOAD SWAP1 PUSH2 0x100 EXP SWAP1 DIV PUSH20 0xFFFFFFFFFFFFFFFFFFFFFFFFFFFFFFFFFFFFFFFF AND PUSH20 0xFFFFFFFFFFFFFFFFFFFFFFFFFFFFFFFFFFFFFFFF AND PUSH4 0xA9059CBB CALLER DUP7 PUSH1 0x40 MLOAD DUP4 PUSH4 0xFFFFFFFF AND PUSH1 0xE0 SHL DUP2 MSTORE PUSH1 0x4 ADD PUSH2 0x972 SWAP3 SWAP2 SWAP1 PUSH2 0x21DD JUMP JUMPDEST PUSH1 0x20 PUSH1 0x40 MLOAD DUP1 DUP4 SUB DUP2 PUSH0 DUP8 GAS CALL ISZERO DUP1 ISZERO PUSH2 0x98E JUMPI RETURNDATASIZE PUSH0 DUP1 RETURNDATACOPY RETURNDATASIZE PUSH0 REVERT JUMPDEST POP POP POP POP PUSH1 0x40 MLOAD RETURNDATASIZE PUSH1 0x1F NOT PUSH1 0x1F DUP3 ADD AND DUP3 ADD DUP1 PUSH1 0x40 MSTORE POP DUP2 ADD SWAP1 PUSH2 0x9B2 SWAP2 SWAP1 PUSH2 0x2239 JUMP JUMPDEST POP JUMPDEST TIMESTAMP DUP3 PUSH1 0x1 ADD DUP2 SWAP1 SSTORE POP PUSH2 0x9FE DUP6 DUP6 CALLER PUSH1 0x40 MLOAD DUP1 PUSH1 0x40 ADD PUSH1 0x40 MSTORE DUP1 PUSH1 0x8 DUP2 MSTORE PUSH1 0x20 ADD PUSH32 0x5769746864726177000000000000000000000000000000000000000000000000 DUP2 MSTORE POP PUSH2 0x1561 JUMP JUMPDEST POP POP POP PUSH1 0x1 DUP1 DUP2 SWAP1 SSTORE POP POP POP JUMP JUMPDEST PUSH2 0xA14 PUSH2 0x144B JUMP JUMPDEST PUSH0 DUP3 PUSH20 0xFFFFFFFFFFFFFFFFFFFFFFFFFFFFFFFFFFFFFFFF AND PUSH4 0x70A08231 ADDRESS PUSH1 0x40 MLOAD DUP3 PUSH4 0xFFFFFFFF AND PUSH1 0xE0 SHL DUP2 MSTORE PUSH1 0x4 ADD PUSH2 0xA4E SWAP2 SWAP1 PUSH2 0x1E86 JUMP JUMPDEST PUSH1 0x20 PUSH1 0x40 MLOAD DUP1 DUP4 SUB DUP2 DUP7 GAS STATICCALL ISZERO DUP1 ISZERO PUSH2 0xA69 JUMPI RETURNDATASIZE PUSH0 DUP1 RETURNDATACOPY RETURNDATASIZE PUSH0 REVERT JUMPDEST POP POP POP POP PUSH1 0x40 MLOAD RETURNDATASIZE PUSH1 0x1F NOT PUSH1 0x1F DUP3 ADD AND DUP3 ADD DUP1 PUSH1 0x40 MSTORE POP DUP2 ADD SWAP1 PUSH2 0xA8D SWAP2 SWAP1 PUSH2 0x22D8 JUMP JUMPDEST SWAP1 POP DUP1 DUP3 LT ISZERO PUSH2 0xAD2 JUMPI PUSH1 0x40 MLOAD PUSH32 0x8C379A000000000000000000000000000000000000000000000000000000000 DUP2 MSTORE PUSH1 0x4 ADD PUSH2 0xAC9 SWAP1 PUSH2 0x234D JUMP JUMPDEST PUSH1 0x40 MLOAD DUP1 SWAP2 SUB SWAP1 REVERT JUMPDEST PUSH1 0x5 PUSH0 DUP5 PUSH20 0xFFFFFFFFFFFFFFFFFFFFFFFFFFFFFFFFFFFFFFFF AND PUSH20 0xFFFFFFFFFFFFFFFFFFFFFFFFFFFFFFFFFFFFFFFF AND DUP2 MSTORE PUSH1 0x20 ADD SWAP1 DUP2 MSTORE PUSH1 0x20 ADD PUSH0 KECCAK256 SLOAD DUP3 DUP3 PUSH2 0xB1C SWAP2 SWAP1 PUSH2 0x2291 JUMP JUMPDEST LT ISZERO PUSH2 0xB5D JUMPI PUSH1 0x40 MLOAD PUSH32 0x8C379A000000000000000000000000000000000000000000000000000000000 DUP2 MSTORE PUSH1 0x4 ADD PUSH2 0xB54 SWAP1 PUSH2 0x23B5 JUMP JUMPDEST PUSH1 0x40 MLOAD DUP1 SWAP2 SUB SWAP1 REVERT JUMPDEST PUSH2 0xB88 CALLER DUP4 DUP6 PUSH20 0xFFFFFFFFFFFFFFFFFFFFFFFFFFFFFFFFFFFFFFFF AND PUSH2 0x1646 SWAP1 SWAP3 SWAP2 SWAP1 PUSH4 0xFFFFFFFF AND JUMP JUMPDEST POP POP POP JUMP JUMPDEST PUSH2 0xB95 PUSH2 0x144B JUMP JUMPDEST PUSH2 0xB9E PUSH0 PUSH2 0x16CC JUMP JUMPDEST JUMP JUMPDEST PUSH0 DUP1 PUSH0 SWAP1 SLOAD SWAP1 PUSH2 0x100 EXP SWAP1 DIV PUSH20 0xFFFFFFFFFFFFFFFFFFFFFFFFFFFFFFFFFFFFFFFF AND SWAP1 POP SWAP1 JUMP JUMPDEST PUSH1 0x5 PUSH1 0x20 MSTORE DUP1 PUSH0 MSTORE PUSH1 0x40 PUSH0 KECCAK256 PUSH0 SWAP2 POP SWAP1 POP SLOAD DUP2 JUMP JUMPDEST PUSH1 0x6 PUSH1 0x20 MSTORE DUP2 PUSH0 MSTORE PUSH1 0x40 PUSH0 KECCAK256 PUSH1 0x20 MSTORE DUP1 PUSH0 MSTORE PUSH1 0x40 PUSH0 KECCAK256 PUSH0 SWAP2 POP SWAP2 POP POP DUP1 PUSH0 ADD SLOAD SWAP1 DUP1 PUSH1 0x1 ADD SLOAD SWAP1 DUP1 PUSH1 0x2 ADD SLOAD SWAP1 POP DUP4 JUMP JUMPDEST PUSH0 DUP1 PUSH1 0x6 PUSH0 DUP6 DUP2 MSTORE PUSH1 0x20 ADD SWAP1 DUP2 MSTORE PUSH1 0x20 ADD PUSH0 KECCAK256 PUSH0 DUP5 PUSH20 0xFFFFFFFFFFFFFFFFFFFFFFFFFFFFFFFFFFFFFFFF AND PUSH20 0xFFFFFFFFFFFFFFFFFFFFFFFFFFFFFFFFFFFFFFFF AND DUP2 MSTORE PUSH1 0x20 ADD SWAP1 DUP2 MSTORE PUSH1 0x20 ADD PUSH0 KECCAK256 SWAP1 POP PUSH2 0xC67 DUP2 DUP6 PUSH2 0x14C9 JUMP JUMPDEST SWAP2 POP POP SWAP3 SWAP2 POP POP JUMP JUMPDEST PUSH1 0x2 PUSH1 0x1 SLOAD SUB PUSH2 0xCB5 JUMPI PUSH1 0x40 MLOAD PUSH32 0x8C379A000000000000000000000000000000000000000000000000000000000 DUP2 MSTORE PUSH1 0x4 ADD PUSH2 0xCAC SWAP1 PUSH2 0x20C9 JUMP JUMPDEST PUSH1 0x40 MLOAD DUP1 SWAP2 SUB SWAP1 REVERT JUMPDEST PUSH1 0x2 PUSH1 0x1 DUP2 SWAP1 SSTORE POP PUSH0 DUP2 GT PUSH2 0xCFF JUMPI PUSH1 0x40 MLOAD PUSH32 0x8C379A000000000000000000000000000000000000000000000000000000000 DUP2 MSTORE PUSH1 0x4 ADD PUSH2 0xCF6 SWAP1 PUSH2 0x241D JUMP JUMPDEST PUSH1 0x40 MLOAD DUP1 SWAP2 SUB SWAP1 REVERT JUMPDEST PUSH0 PUSH1 0x4 DUP4 DUP2 SLOAD DUP2 LT PUSH2 0xD14 JUMPI PUSH2 0xD13 PUSH2 0x2052 JUMP JUMPDEST JUMPDEST SWAP1 PUSH0 MSTORE PUSH1 0x20 PUSH0 KECCAK256 SWAP1 PUSH1 0x5 MUL ADD SWAP1 POP PUSH0 PUSH1 0x6 PUSH0 DUP6 DUP2 MSTORE PUSH1 0x20 ADD SWAP1 DUP2 MSTORE PUSH1 0x20 ADD PUSH0 KECCAK256 PUSH0 CALLER PUSH20 0xFFFFFFFFFFFFFFFFFFFFFFFFFFFFFFFFFFFFFFFF AND PUSH20 0xFFFFFFFFFFFFFFFFFFFFFFFFFFFFFFFFFFFFFFFF AND DUP2 MSTORE PUSH1 0x20 ADD SWAP1 DUP2 MSTORE PUSH1 0x20 ADD PUSH0 KECCAK256 SWAP1 POP PUSH0 DUP2 PUSH0 ADD SLOAD GT ISZERO PUSH2 0xE6B JUMPI PUSH0 PUSH2 0xD87 DUP3 DUP7 PUSH2 0x14C9 JUMP JUMPDEST SWAP1 POP DUP3 PUSH1 0x1 ADD PUSH0 SWAP1 SLOAD SWAP1 PUSH2 0x100 EXP SWAP1 DIV PUSH20 0xFFFFFFFFFFFFFFFFFFFFFFFFFFFFFFFFFFFFFFFF AND PUSH20 0xFFFFFFFFFFFFFFFFFFFFFFFFFFFFFFFFFFFFFFFF AND PUSH4 0xA9059CBB CALLER DUP4 PUSH1 0x40 MLOAD DUP4 PUSH4 0xFFFFFFFF AND PUSH1 0xE0 SHL DUP2 MSTORE PUSH1 0x4 ADD PUSH2 0xDE7 SWAP3 SWAP2 SWAP1 PUSH2 0x21DD JUMP JUMPDEST PUSH1 0x20 PUSH1 0x40 MLOAD DUP1 DUP4 SUB DUP2 PUSH0 DUP8 GAS CALL ISZERO DUP1 ISZERO PUSH2 0xE03 JUMPI RETURNDATASIZE PUSH0 DUP1 RETURNDATACOPY RETURNDATASIZE PUSH0 REVERT JUMPDEST POP POP POP POP PUSH1 0x40 MLOAD RETURNDATASIZE PUSH1 0x1F NOT PUSH1 0x1F DUP3 ADD AND DUP3 ADD DUP1 PUSH1 0x40 MSTORE POP DUP2 ADD SWAP1 PUSH2 0xE27 SWAP2 SWAP1 PUSH2 0x2239 JUMP JUMPDEST POP PUSH2 0xE69 DUP6 DUP3 CALLER PUSH1 0x40 MLOAD DUP1 PUSH1 0x40 ADD PUSH1 0x40 MSTORE DUP1 PUSH1 0x5 DUP2 MSTORE PUSH1 0x20 ADD PUSH32 0x436C61696D000000000000000000000000000000000000000000000000000000 DUP2 MSTORE POP PUSH2 0x1561 JUMP JUMPDEST POP JUMPDEST DUP2 PUSH0 ADD PUSH0 SWAP1 SLOAD SWAP1 PUSH2 0x100 EXP SWAP1 DIV PUSH20 0xFFFFFFFFFFFFFFFFFFFFFFFFFFFFFFFFFFFFFFFF AND PUSH20 0xFFFFFFFFFFFFFFFFFFFFFFFFFFFFFFFFFFFFFFFF AND PUSH4 0x23B872DD CALLER ADDRESS DUP7 PUSH1 0x40 MLOAD DUP5 PUSH4 0xFFFFFFFF AND PUSH1 0xE0 SHL DUP2 MSTORE PUSH1 0x4 ADD PUSH2 0xECA SWAP4 SWAP3 SWAP2 SWAP1 PUSH2 0x243B JUMP JUMPDEST PUSH1 0x20 PUSH1 0x40 MLOAD DUP1 DUP4 SUB DUP2 PUSH0 DUP8 GAS CALL ISZERO DUP1 ISZERO PUSH2 0xEE6 JUMPI RETURNDATASIZE PUSH0 DUP1 RETURNDATACOPY RETURNDATASIZE PUSH0 REVERT JUMPDEST POP POP POP POP PUSH1 0x40 MLOAD RETURNDATASIZE PUSH1 0x1F NOT PUSH1 0x1F DUP3 ADD AND DUP3 ADD DUP1 PUSH1 0x40 MSTORE POP DUP2 ADD SWAP1 PUSH2 0xF0A SWAP2 SWAP1 PUSH2 0x2239 JUMP JUMPDEST POP DUP3 DUP3 PUSH1 0x2 ADD PUSH0 DUP3 DUP3 SLOAD PUSH2 0xF1E SWAP2 SWAP1 PUSH2 0x2470 JUMP JUMPDEST SWAP3 POP POP DUP2 SWAP1 SSTORE POP DUP3 DUP2 PUSH0 ADD PUSH0 DUP3 DUP3 SLOAD PUSH2 0xF37 SWAP2 SWAP1 PUSH2 0x2470 JUMP JUMPDEST SWAP3 POP POP DUP2 SWAP1 SSTORE POP TIMESTAMP DUP2 PUSH1 0x1 ADD DUP2 SWAP1 SSTORE POP PUSH1 0x3C DUP3 PUSH1 0x4 ADD SLOAD PUSH2 0xF58 SWAP2 SWAP1 PUSH2 0x24A3 JUMP JUMPDEST TIMESTAMP PUSH2 0xF63 SWAP2 SWAP1 PUSH2 0x2470 JUMP JUMPDEST DUP2 PUSH1 0x2 ADD DUP2 SWAP1 SSTORE POP DUP3 PUSH1 0x5 PUSH0 DUP5 PUSH0 ADD PUSH0 SWAP1 SLOAD SWAP1 PUSH2 0x100 EXP SWAP1 DIV PUSH20 0xFFFFFFFFFFFFFFFFFFFFFFFFFFFFFFFFFFFFFFFF AND PUSH20 0xFFFFFFFFFFFFFFFFFFFFFFFFFFFFFFFFFFFFFFFF AND PUSH20 0xFFFFFFFFFFFFFFFFFFFFFFFFFFFFFFFFFFFFFFFF AND DUP2 MSTORE PUSH1 0x20 ADD SWAP1 DUP2 MSTORE PUSH1 0x20 ADD PUSH0 KECCAK256 PUSH0 DUP3 DUP3 SLOAD PUSH2 0xFD9 SWAP2 SWAP1 PUSH2 0x2470 JUMP JUMPDEST SWAP3 POP POP DUP2 SWAP1 SSTORE POP PUSH2 0x1021 DUP5 DUP5 CALLER PUSH1 0x40 MLOAD DUP1 PUSH1 0x40 ADD PUSH1 0x40 MSTORE DUP1 PUSH1 0x9 DUP2 MSTORE PUSH1 0x20 ADD PUSH32 0x4465706F73697465640000000000000000000000000000000000000000000000 DUP2 MSTORE POP PUSH2 0x1561 JUMP JUMPDEST POP POP PUSH1 0x1 DUP1 DUP2 SWAP1 SSTORE POP POP POP JUMP JUMPDEST PUSH1 0x2 PUSH1 0x1 SLOAD SUB PUSH2 0x1073 JUMPI PUSH1 0x40 MLOAD PUSH32 0x8C379A000000000000000000000000000000000000000000000000000000000 DUP2 MSTORE PUSH1 0x4 ADD PUSH2 0x106A SWAP1 PUSH2 0x20C9 JUMP JUMPDEST PUSH1 0x40 MLOAD DUP1 SWAP2 SUB SWAP1 REVERT JUMPDEST PUSH1 0x2 PUSH1 0x1 DUP2 SWAP1 SSTORE POP PUSH0 PUSH1 0x4 DUP3 DUP2 SLOAD DUP2 LT PUSH2 0x1090 JUMPI PUSH2 0x108F PUSH2 0x2052 JUMP JUMPDEST JUMPDEST SWAP1 PUSH0 MSTORE PUSH1 0x20 PUSH0 KECCAK256 SWAP1 PUSH1 0x5 MUL ADD SWAP1 POP PUSH0 PUSH1 0x6 PUSH0 DUP5 DUP2 MSTORE PUSH1 0x20 ADD SWAP1 DUP2 MSTORE PUSH1 0x20 ADD PUSH0 KECCAK256 PUSH0 CALLER PUSH20 0xFFFFFFFFFFFFFFFFFFFFFFFFFFFFFFFFFFFFFFFF AND PUSH20 0xFFFFFFFFFFFFFFFFFFFFFFFFFFFFFFFFFFFFFFFF AND DUP2 MSTORE PUSH1 0x20 ADD SWAP1 DUP2 MSTORE PUSH1 0x20 ADD PUSH0 KECCAK256 SWAP1 POP TIMESTAMP DUP2 PUSH1 0x2 ADD SLOAD GT ISZERO PUSH2 0x1134 JUMPI PUSH1 0x40 MLOAD PUSH32 0x8C379A000000000000000000000000000000000000000000000000000000000 DUP2 MSTORE PUSH1 0x4 ADD PUSH2 0x112B SWAP1 PUSH2 0x252E JUMP JUMPDEST PUSH1 0x40 MLOAD DUP1 SWAP2 SUB SWAP1 REVERT JUMPDEST PUSH0 PUSH2 0x113F DUP3 DUP6 PUSH2 0x14C9 JUMP JUMPDEST SWAP1 POP PUSH0 DUP2 GT PUSH2 0x1183 JUMPI PUSH1 0x40 MLOAD PUSH32 0x8C379A000000000000000000000000000000000000000000000000000000000 DUP2 MSTORE PUSH1 0x4 ADD PUSH2 0x117A SWAP1 PUSH2 0x2596 JUMP JUMPDEST PUSH1 0x40 MLOAD DUP1 SWAP2 SUB SWAP1 REVERT JUMPDEST TIMESTAMP DUP3 PUSH1 0x1 ADD DUP2 SWAP1 SSTORE POP DUP3 PUSH1 0x1 ADD PUSH0 SWAP1 SLOAD SWAP1 PUSH2 0x100 EXP SWAP1 DIV PUSH20 0xFFFFFFFFFFFFFFFFFFFFFFFFFFFFFFFFFFFFFFFF AND PUSH20 0xFFFFFFFFFFFFFFFFFFFFFFFFFFFFFFFFFFFFFFFF AND PUSH4 0xA9059CBB CALLER DUP4 PUSH1 0x40 MLOAD DUP4 PUSH4 0xFFFFFFFF AND PUSH1 0xE0 SHL DUP2 MSTORE PUSH1 0x4 ADD PUSH2 0x11EA SWAP3 SWAP2 SWAP1 PUSH2 0x21DD JUMP JUMPDEST PUSH1 0x20 PUSH1 0x40 MLOAD DUP1 DUP4 SUB DUP2 PUSH0 DUP8 GAS CALL ISZERO DUP1 ISZERO PUSH2 0x1206 JUMPI RETURNDATASIZE PUSH0 DUP1 RETURNDATACOPY RETURNDATASIZE PUSH0 REVERT JUMPDEST POP POP POP POP PUSH1 0x40 MLOAD RETURNDATASIZE PUSH1 0x1F NOT PUSH1 0x1F DUP3 ADD AND DUP3 ADD DUP1 PUSH1 0x40 MSTORE POP DUP2 ADD SWAP1 PUSH2 0x122A SWAP2 SWAP1 PUSH2 0x2239 JUMP JUMPDEST POP PUSH2 0x126C DUP5 DUP3 CALLER PUSH1 0x40 MLOAD DUP1 PUSH1 0x40 ADD PUSH1 0x40 MSTORE DUP1 PUSH1 0x7 DUP2 MSTORE PUSH1 0x20 ADD PUSH32 0x636C61696D656400000000000000000000000000000000000000000000000000 DUP2 MSTORE POP PUSH2 0x1561 JUMP JUMPDEST POP POP POP PUSH1 0x1 DUP1 DUP2 SWAP1 SSTORE POP POP JUMP JUMPDEST PUSH2 0x1281 PUSH2 0x144B JUMP JUMPDEST PUSH1 0x4 PUSH1 0x40 MLOAD DUP1 PUSH1 0xA0 ADD PUSH1 0x40 MSTORE DUP1 DUP7 PUSH20 0xFFFFFFFFFFFFFFFFFFFFFFFFFFFFFFFFFFFFFFFF AND DUP2 MSTORE PUSH1 0x20 ADD DUP6 PUSH20 0xFFFFFFFFFFFFFFFFFFFFFFFFFFFFFFFFFFFFFFFF AND DUP2 MSTORE PUSH1 0x20 ADD PUSH0 DUP2 MSTORE PUSH1 0x20 ADD DUP5 DUP2 MSTORE PUSH1 0x20 ADD DUP4 DUP2 MSTORE POP SWAP1 DUP1 PUSH1 0x1 DUP2 SLOAD ADD DUP1 DUP3 SSTORE DUP1 SWAP2 POP POP PUSH1 0x1 SWAP1 SUB SWAP1 PUSH0 MSTORE PUSH1 0x20 PUSH0 KECCAK256 SWAP1 PUSH1 0x5 MUL ADD PUSH0 SWAP1 SWAP2 SWAP1 SWAP2 SWAP1 SWAP2 POP PUSH0 DUP3 ADD MLOAD DUP2 PUSH0 ADD PUSH0 PUSH2 0x100 EXP DUP2 SLOAD DUP2 PUSH20 0xFFFFFFFFFFFFFFFFFFFFFFFFFFFFFFFFFFFFFFFF MUL NOT AND SWAP1 DUP4 PUSH20 0xFFFFFFFFFFFFFFFFFFFFFFFFFFFFFFFFFFFFFFFF AND MUL OR SWAP1 SSTORE POP PUSH1 0x20 DUP3 ADD MLOAD DUP2 PUSH1 0x1 ADD PUSH0 PUSH2 0x100 EXP DUP2 SLOAD DUP2 PUSH20 0xFFFFFFFFFFFFFFFFFFFFFFFFFFFFFFFFFFFFFFFF MUL NOT AND SWAP1 DUP4 PUSH20 0xFFFFFFFFFFFFFFFFFFFFFFFFFFFFFFFFFFFFFFFF AND MUL OR SWAP1 SSTORE POP PUSH1 0x40 DUP3 ADD MLOAD DUP2 PUSH1 0x2 ADD SSTORE PUSH1 0x60 DUP3 ADD MLOAD DUP2 PUSH1 0x3 ADD SSTORE PUSH1 0x80 DUP3 ADD MLOAD DUP2 PUSH1 0x4 ADD SSTORE POP POP PUSH1 0x3 PUSH0 DUP2 SLOAD DUP1 SWAP3 SWAP2 SWAP1 PUSH2 0x13B8 SWAP1 PUSH2 0x25B4 JUMP JUMPDEST SWAP2 SWAP1 POP SSTORE POP POP POP POP POP JUMP JUMPDEST PUSH2 0x13CB PUSH2 0x144B JUMP JUMPDEST PUSH0 PUSH20 0xFFFFFFFFFFFFFFFFFFFFFFFFFFFFFFFFFFFFFFFF AND DUP2 PUSH20 0xFFFFFFFFFFFFFFFFFFFFFFFFFFFFFFFFFFFFFFFF AND SUB PUSH2 0x1439 JUMPI PUSH1 0x40 MLOAD PUSH32 0x8C379A000000000000000000000000000000000000000000000000000000000 DUP2 MSTORE PUSH1 0x4 ADD PUSH2 0x1430 SWAP1 PUSH2 0x266B JUMP JUMPDEST PUSH1 0x40 MLOAD DUP1 SWAP2 SUB SWAP1 REVERT JUMPDEST PUSH2 0x1442 DUP2 PUSH2 0x16CC JUMP JUMPDEST POP JUMP JUMPDEST PUSH1 0x3 SLOAD DUP2 JUMP JUMPDEST PUSH2 0x1453 PUSH2 0x178D JUMP JUMPDEST PUSH20 0xFFFFFFFFFFFFFFFFFFFFFFFFFFFFFFFFFFFFFFFF AND PUSH2 0x1471 PUSH2 0xBA0 JUMP JUMPDEST PUSH20 0xFFFFFFFFFFFFFFFFFFFFFFFFFFFFFFFFFFFFFFFF AND EQ PUSH2 0x14C7 JUMPI PUSH1 0x40 MLOAD PUSH32 0x8C379A000000000000000000000000000000000000000000000000000000000 DUP2 MSTORE PUSH1 0x4 ADD PUSH2 0x14BE SWAP1 PUSH2 0x26D3 JUMP JUMPDEST PUSH1 0x40 MLOAD DUP1 SWAP2 SUB SWAP1 REVERT JUMPDEST JUMP JUMPDEST PUSH0 DUP1 PUSH1 0x4 DUP4 DUP2 SLOAD DUP2 LT PUSH2 0x14DF JUMPI PUSH2 0x14DE PUSH2 0x2052 JUMP JUMPDEST JUMPDEST SWAP1 PUSH0 MSTORE PUSH1 0x20 PUSH0 KECCAK256 SWAP1 PUSH1 0x5 MUL ADD SWAP1 POP PUSH0 PUSH1 0x3C DUP6 PUSH1 0x1 ADD SLOAD TIMESTAMP PUSH2 0x1500 SWAP2 SWAP1 PUSH2 0x2291 JUMP JUMPDEST PUSH2 0x150A SWAP2 SWAP1 PUSH2 0x271E JUMP JUMPDEST SWAP1 POP DUP2 PUSH1 0x4 ADD SLOAD DUP2 GT ISZERO PUSH2 0x1520 JUMPI DUP2 PUSH1 0x4 ADD SLOAD SWAP1 POP JUMPDEST DUP2 PUSH1 0x3 ADD SLOAD PUSH1 0x64 PUSH2 0x16D DUP4 DUP9 PUSH0 ADD SLOAD PUSH2 0x1539 SWAP2 SWAP1 PUSH2 0x24A3 JUMP JUMPDEST PUSH2 0x1543 SWAP2 SWAP1 PUSH2 0x271E JUMP JUMPDEST PUSH2 0x154D SWAP2 SWAP1 PUSH2 0x271E JUMP JUMPDEST PUSH2 0x1557 SWAP2 SWAP1 PUSH2 0x24A3 JUMP JUMPDEST SWAP3 POP POP POP SWAP3 SWAP2 POP POP JUMP JUMPDEST PUSH1 0x7 PUSH1 0x40 MLOAD DUP1 PUSH1 0xA0 ADD PUSH1 0x40 MSTORE DUP1 DUP7 DUP2 MSTORE PUSH1 0x20 ADD DUP6 DUP2 MSTORE PUSH1 0x20 ADD DUP5 PUSH20 0xFFFFFFFFFFFFFFFFFFFFFFFFFFFFFFFFFFFFFFFF AND DUP2 MSTORE PUSH1 0x20 ADD DUP4 DUP2 MSTORE PUSH1 0x20 ADD TIMESTAMP DUP2 MSTORE POP SWAP1 DUP1 PUSH1 0x1 DUP2 SLOAD ADD DUP1 DUP3 SSTORE DUP1 SWAP2 POP POP PUSH1 0x1 SWAP1 SUB SWAP1 PUSH0 MSTORE PUSH1 0x20 PUSH0 KECCAK256 SWAP1 PUSH1 0x5 MUL ADD PUSH0 SWAP1 SWAP2 SWAP1 SWAP2 SWAP1 SWAP2 POP PUSH0 DUP3 ADD MLOAD DUP2 PUSH0 ADD SSTORE PUSH1 0x20 DUP3 ADD MLOAD DUP2 PUSH1 0x1 ADD SSTORE PUSH1 0x40 DUP3 ADD MLOAD DUP2 PUSH1 0x2 ADD PUSH0 PUSH2 0x100 EXP DUP2 SLOAD DUP2 PUSH20 0xFFFFFFFFFFFFFFFFFFFFFFFFFFFFFFFFFFFFFFFF MUL NOT AND SWAP1 DUP4 PUSH20 0xFFFFFFFFFFFFFFFFFFFFFFFFFFFFFFFFFFFFFFFF AND MUL OR SWAP1 SSTORE POP PUSH1 0x60 DUP3 ADD MLOAD DUP2 PUSH1 0x3 ADD SWAP1 DUP2 PUSH2 0x1633 SWAP2 SWAP1 PUSH2 0x290F JUMP JUMPDEST POP PUSH1 0x80 DUP3 ADD MLOAD DUP2 PUSH1 0x4 ADD SSTORE POP POP POP POP POP POP JUMP JUMPDEST PUSH2 0x16C7 DUP4 PUSH4 0xA9059CBB PUSH1 0xE0 SHL DUP5 DUP5 PUSH1 0x40 MLOAD PUSH1 0x24 ADD PUSH2 0x1665 SWAP3 SWAP2 SWAP1 PUSH2 0x21DD JUMP JUMPDEST PUSH1 0x40 MLOAD PUSH1 0x20 DUP2 DUP4 SUB SUB DUP2 MSTORE SWAP1 PUSH1 0x40 MSTORE SWAP1 PUSH28 0xFFFFFFFFFFFFFFFFFFFFFFFFFFFFFFFFFFFFFFFFFFFFFFFFFFFFFFFF NOT AND PUSH1 0x20 DUP3 ADD DUP1 MLOAD PUSH28 0xFFFFFFFFFFFFFFFFFFFFFFFFFFFFFFFFFFFFFFFFFFFFFFFFFFFFFFFF DUP4 DUP2 DUP4 AND OR DUP4 MSTORE POP POP POP POP PUSH2 0x1794 JUMP JUMPDEST POP POP POP JUMP JUMPDEST PUSH0 DUP1 PUSH0 SWAP1 SLOAD SWAP1 PUSH2 0x100 EXP SWAP1 DIV PUSH20 0xFFFFFFFFFFFFFFFFFFFFFFFFFFFFFFFFFFFFFFFF AND SWAP1 POP DUP2 PUSH0 DUP1 PUSH2 0x100 EXP DUP2 SLOAD DUP2 PUSH20 0xFFFFFFFFFFFFFFFFFFFFFFFFFFFFFFFFFFFFFFFF MUL NOT AND SWAP1 DUP4 PUSH20 0xFFFFFFFFFFFFFFFFFFFFFFFFFFFFFFFFFFFFFFFF AND MUL OR SWAP1 SSTORE POP DUP2 PUSH20 0xFFFFFFFFFFFFFFFFFFFFFFFFFFFFFFFFFFFFFFFF AND DUP2 PUSH20 0xFFFFFFFFFFFFFFFFFFFFFFFFFFFFFFFFFFFFFFFF AND PUSH32 0x8BE0079C531659141344CD1FD0A4F28419497F9722A3DAAFE3B4186F6B6457E0 PUSH1 0x40 MLOAD PUSH1 0x40 MLOAD DUP1 SWAP2 SUB SWAP1 LOG3 POP POP JUMP JUMPDEST PUSH0 CALLER SWAP1 POP SWAP1 JUMP JUMPDEST PUSH0 PUSH2 0x17F5 DUP3 PUSH1 0x40 MLOAD DUP1 PUSH1 0x40 ADD PUSH1 0x40 MSTORE DUP1 PUSH1 0x20 DUP2 MSTORE PUSH1 0x20 ADD PUSH32 0x5361666545524332303A206C6F772D6C6576656C2063616C6C206661696C6564 DUP2 MSTORE POP DUP6 PUSH20 0xFFFFFFFFFFFFFFFFFFFFFFFFFFFFFFFFFFFFFFFF AND PUSH2 0x1859 SWAP1 SWAP3 SWAP2 SWAP1 PUSH4 0xFFFFFFFF AND JUMP JUMPDEST SWAP1 POP PUSH0 DUP2 MLOAD GT ISZERO PUSH2 0x1854 JUMPI DUP1 DUP1 PUSH1 0x20 ADD SWAP1 MLOAD DUP2 ADD SWAP1 PUSH2 0x1814 SWAP2 SWAP1 PUSH2 0x2239 JUMP JUMPDEST PUSH2 0x1853 JUMPI PUSH1 0x40 MLOAD PUSH32 0x8C379A000000000000000000000000000000000000000000000000000000000 DUP2 MSTORE PUSH1 0x4 ADD PUSH2 0x184A SWAP1 PUSH2 0x2A4E JUMP JUMPDEST PUSH1 0x40 MLOAD DUP1 SWAP2 SUB SWAP1 REVERT JUMPDEST JUMPDEST POP POP POP JUMP JUMPDEST PUSH1 0x60 PUSH2 0x1867 DUP5 DUP5 PUSH0 DUP6 PUSH2 0x1870 JUMP JUMPDEST SWAP1 POP SWAP4 SWAP3 POP POP POP JUMP JUMPDEST PUSH1 0x60 DUP3 SELFBALANCE LT ISZERO PUSH2 0x18B5 JUMPI PUSH1 0x40 MLOAD PUSH32 0x8C379A000000000000000000000000000000000000000000000000000000000 DUP2 MSTORE PUSH1 0x4 ADD PUSH2 0x18AC SWAP1 PUSH2 0x2ADC JUMP JUMPDEST PUSH1 0x40 MLOAD DUP1 SWAP2 SUB SWAP1 REVERT JUMPDEST PUSH2 0x18BE DUP6 PUSH2 0x1980 JUMP JUMPDEST PUSH2 0x18FD JUMPI PUSH1 0x40 MLOAD PUSH32 0x8C379A000000000000000000000000000000000000000000000000000000000 DUP2 MSTORE PUSH1 0x4 ADD PUSH2 0x18F4 SWAP1 PUSH2 0x2B44 JUMP JUMPDEST PUSH1 0x40 MLOAD DUP1 SWAP2 SUB SWAP1 REVERT JUMPDEST PUSH0 DUP1 DUP7 PUSH20 0xFFFFFFFFFFFFFFFFFFFFFFFFFFFFFFFFFFFFFFFF AND DUP6 DUP8 PUSH1 0x40 MLOAD PUSH2 0x1925 SWAP2 SWAP1 PUSH2 0x2BA6 JUMP JUMPDEST PUSH0 PUSH1 0x40 MLOAD DUP1 DUP4 SUB DUP2 DUP6 DUP8 GAS CALL SWAP3 POP POP POP RETURNDATASIZE DUP1 PUSH0 DUP2 EQ PUSH2 0x195F JUMPI PUSH1 0x40 MLOAD SWAP2 POP PUSH1 0x1F NOT PUSH1 0x3F RETURNDATASIZE ADD AND DUP3 ADD PUSH1 0x40 MSTORE RETURNDATASIZE DUP3 MSTORE RETURNDATASIZE PUSH0 PUSH1 0x20 DUP5 ADD RETURNDATACOPY PUSH2 0x1964 JUMP JUMPDEST PUSH1 0x60 SWAP2 POP JUMPDEST POP SWAP2 POP SWAP2 POP PUSH2 0x1974 DUP3 DUP3 DUP7 PUSH2 0x19A2 JUMP JUMPDEST SWAP3 POP POP POP SWAP5 SWAP4 POP POP POP POP JUMP JUMPDEST PUSH0 DUP1 DUP3 PUSH20 0xFFFFFFFFFFFFFFFFFFFFFFFFFFFFFFFFFFFFFFFF AND EXTCODESIZE GT SWAP1 POP SWAP2 SWAP1 POP JUMP JUMPDEST PUSH1 0x60 DUP4 ISZERO PUSH2 0x19B2 JUMPI DUP3 SWAP1 POP PUSH2 0x1A01 JUMP JUMPDEST PUSH0 DUP4 MLOAD GT ISZERO PUSH2 0x19C4 JUMPI DUP3 MLOAD DUP1 DUP5 PUSH1 0x20 ADD REVERT JUMPDEST DUP2 PUSH1 0x40 MLOAD PUSH32 0x8C379A000000000000000000000000000000000000000000000000000000000 DUP2 MSTORE PUSH1 0x4 ADD PUSH2 0x19F8 SWAP2 SWAP1 PUSH2 0x2BBC JUMP JUMPDEST PUSH1 0x40 MLOAD DUP1 SWAP2 SUB SWAP1 REVERT JUMPDEST SWAP4 SWAP3 POP POP POP JUMP JUMPDEST PUSH0 DUP1 REVERT JUMPDEST PUSH0 DUP2 SWAP1 POP SWAP2 SWAP1 POP JUMP JUMPDEST PUSH2 0x1A1E DUP2 PUSH2 0x1A0C JUMP JUMPDEST DUP2 EQ PUSH2 0x1A28 JUMPI PUSH0 DUP1 REVERT JUMPDEST POP JUMP JUMPDEST PUSH0 DUP2 CALLDATALOAD SWAP1 POP PUSH2 0x1A39 DUP2 PUSH2 0x1A15 JUMP JUMPDEST SWAP3 SWAP2 POP POP JUMP JUMPDEST PUSH0 PUSH1 0x20 DUP3 DUP5 SUB SLT ISZERO PUSH2 0x1A54 JUMPI PUSH2 0x1A53 PUSH2 0x1A08 JUMP JUMPDEST JUMPDEST PUSH0 PUSH2 0x1A61 DUP5 DUP3 DUP6 ADD PUSH2 0x1A2B JUMP JUMPDEST SWAP2 POP POP SWAP3 SWAP2 POP POP JUMP JUMPDEST PUSH0 PUSH20 0xFFFFFFFFFFFFFFFFFFFFFFFFFFFFFFFFFFFFFFFF DUP3 AND SWAP1 POP SWAP2 SWAP1 POP JUMP JUMPDEST PUSH0 DUP2 SWAP1 POP SWAP2 SWAP1 POP JUMP JUMPDEST PUSH0 PUSH2 0x1AAC PUSH2 0x1AA7 PUSH2 0x1AA2 DUP5 PUSH2 0x1A6A JUMP JUMPDEST PUSH2 0x1A89 JUMP JUMPDEST PUSH2 0x1A6A JUMP JUMPDEST SWAP1 POP SWAP2 SWAP1 POP JUMP JUMPDEST PUSH0 PUSH2 0x1ABD DUP3 PUSH2 0x1A92 JUMP JUMPDEST SWAP1 POP SWAP2 SWAP1 POP JUMP JUMPDEST PUSH0 PUSH2 0x1ACE DUP3 PUSH2 0x1AB3 JUMP JUMPDEST SWAP1 POP SWAP2 SWAP1 POP JUMP JUMPDEST PUSH2 0x1ADE DUP2 PUSH2 0x1AC4 JUMP JUMPDEST DUP3 MSTORE POP POP JUMP JUMPDEST PUSH2 0x1AED DUP2 PUSH2 0x1A0C JUMP JUMPDEST DUP3 MSTORE POP POP JUMP JUMPDEST PUSH0 PUSH1 0xA0 DUP3 ADD SWAP1 POP PUSH2 0x1B06 PUSH0 DUP4 ADD DUP9 PUSH2 0x1AD5 JUMP JUMPDEST PUSH2 0x1B13 PUSH1 0x20 DUP4 ADD DUP8 PUSH2 0x1AD5 JUMP JUMPDEST PUSH2 0x1B20 PUSH1 0x40 DUP4 ADD DUP7 PUSH2 0x1AE4 JUMP JUMPDEST PUSH2 0x1B2D PUSH1 0x60 DUP4 ADD DUP6 PUSH2 0x1AE4 JUMP JUMPDEST PUSH2 0x1B3A PUSH1 0x80 DUP4 ADD DUP5 PUSH2 0x1AE4 JUMP JUMPDEST SWAP7 SWAP6 POP POP POP POP POP POP JUMP JUMPDEST PUSH0 DUP2 MLOAD SWAP1 POP SWAP2 SWAP1 POP JUMP JUMPDEST PUSH0 DUP3 DUP3 MSTORE PUSH1 0x20 DUP3 ADD SWAP1 POP SWAP3 SWAP2 POP POP JUMP JUMPDEST PUSH0 DUP2 SWAP1 POP PUSH1 0x20 DUP3 ADD SWAP1 POP SWAP2 SWAP1 POP JUMP JUMPDEST PUSH2 0x1B76 DUP2 PUSH2 0x1A0C JUMP JUMPDEST DUP3 MSTORE POP POP JUMP JUMPDEST PUSH0 PUSH2 0x1B86 DUP3 PUSH2 0x1A6A JUMP JUMPDEST SWAP1 POP SWAP2 SWAP1 POP JUMP JUMPDEST PUSH2 0x1B96 DUP2 PUSH2 0x1B7C JUMP JUMPDEST DUP3 MSTORE POP POP JUMP JUMPDEST PUSH0 DUP2 MLOAD SWAP1 POP SWAP2 SWAP1 POP JUMP JUMPDEST PUSH0 DUP3 DUP3 MSTORE PUSH1 0x20 DUP3 ADD SWAP1 POP SWAP3 SWAP2 POP POP JUMP JUMPDEST DUP3 DUP2 DUP4 MCOPY PUSH0 DUP4 DUP4 ADD MSTORE POP POP POP JUMP JUMPDEST PUSH0 PUSH1 0x1F NOT PUSH1 0x1F DUP4 ADD AND SWAP1 POP SWAP2 SWAP1 POP JUMP JUMPDEST PUSH0 PUSH2 0x1BDE DUP3 PUSH2 0x1B9C JUMP JUMPDEST PUSH2 0x1BE8 DUP2 DUP6 PUSH2 0x1BA6 JUMP JUMPDEST SWAP4 POP PUSH2 0x1BF8 DUP2 DUP6 PUSH1 0x20 DUP7 ADD PUSH2 0x1BB6 JUMP JUMPDEST PUSH2 0x1C01 DUP2 PUSH2 0x1BC4 JUMP JUMPDEST DUP5 ADD SWAP2 POP POP SWAP3 SWAP2 POP POP JUMP JUMPDEST PUSH0 PUSH1 0xA0 DUP4 ADD PUSH0 DUP4 ADD MLOAD PUSH2 0x1C21 PUSH0 DUP7 ADD DUP3 PUSH2 0x1B6D JUMP JUMPDEST POP PUSH1 0x20 DUP4 ADD MLOAD PUSH2 0x1C34 PUSH1 0x20 DUP7 ADD DUP3 PUSH2 0x1B6D JUMP JUMPDEST POP PUSH1 0x40 DUP4 ADD MLOAD PUSH2 0x1C47 PUSH1 0x40 DUP7 ADD DUP3 PUSH2 0x1B8D JUMP JUMPDEST POP PUSH1 0x60 DUP4 ADD MLOAD DUP5 DUP3 SUB PUSH1 0x60 DUP7 ADD MSTORE PUSH2 0x1C5F DUP3 DUP3 PUSH2 0x1BD4 JUMP JUMPDEST SWAP2 POP POP PUSH1 0x80 DUP4 ADD MLOAD PUSH2 0x1C74 PUSH1 0x80 DUP7 ADD DUP3 PUSH2 0x1B6D JUMP JUMPDEST POP DUP1 SWAP2 POP POP SWAP3 SWAP2 POP POP JUMP JUMPDEST PUSH0 PUSH2 0x1C8A DUP4 DUP4 PUSH2 0x1C0C JUMP JUMPDEST SWAP1 POP SWAP3 SWAP2 POP POP JUMP JUMPDEST PUSH0 PUSH1 0x20 DUP3 ADD SWAP1 POP SWAP2 SWAP1 POP JUMP JUMPDEST PUSH0 PUSH2 0x1CA8 DUP3 PUSH2 0x1B44 JUMP JUMPDEST PUSH2 0x1CB2 DUP2 DUP6 PUSH2 0x1B4E JUMP JUMPDEST SWAP4 POP DUP4 PUSH1 0x20 DUP3 MUL DUP6 ADD PUSH2 0x1CC4 DUP6 PUSH2 0x1B5E JUMP JUMPDEST DUP1 PUSH0 JUMPDEST DUP6 DUP2 LT ISZERO PUSH2 0x1CFF JUMPI DUP5 DUP5 SUB DUP10 MSTORE DUP2 MLOAD PUSH2 0x1CE0 DUP6 DUP3 PUSH2 0x1C7F JUMP JUMPDEST SWAP5 POP PUSH2 0x1CEB DUP4 PUSH2 0x1C92 JUMP JUMPDEST SWAP3 POP PUSH1 0x20 DUP11 ADD SWAP10 POP POP PUSH1 0x1 DUP2 ADD SWAP1 POP PUSH2 0x1CC7 JUMP JUMPDEST POP DUP3 SWAP8 POP DUP8 SWAP6 POP POP POP POP POP POP SWAP3 SWAP2 POP POP JUMP JUMPDEST PUSH0 PUSH1 0x20 DUP3 ADD SWAP1 POP DUP2 DUP2 SUB PUSH0 DUP4 ADD MSTORE PUSH2 0x1D29 DUP2 DUP5 PUSH2 0x1C9E JUMP JUMPDEST SWAP1 POP SWAP3 SWAP2 POP POP JUMP JUMPDEST PUSH2 0x1D3A DUP2 PUSH2 0x1B7C JUMP JUMPDEST DUP3 MSTORE POP POP JUMP JUMPDEST PUSH0 DUP3 DUP3 MSTORE PUSH1 0x20 DUP3 ADD SWAP1 POP SWAP3 SWAP2 POP POP JUMP JUMPDEST PUSH0 PUSH2 0x1D5A DUP3 PUSH2 0x1B9C JUMP JUMPDEST PUSH2 0x1D64 DUP2 DUP6 PUSH2 0x1D40 JUMP JUMPDEST SWAP4 POP PUSH2 0x1D74 DUP2 DUP6 PUSH1 0x20 DUP7 ADD PUSH2 0x1BB6 JUMP JUMPDEST PUSH2 0x1D7D DUP2 PUSH2 0x1BC4 JUMP JUMPDEST DUP5 ADD SWAP2 POP POP SWAP3 SWAP2 POP POP JUMP JUMPDEST PUSH0 PUSH1 0xA0 DUP3 ADD SWAP1 POP PUSH2 0x1D9B PUSH0 DUP4 ADD DUP9 PUSH2 0x1AE4 JUMP JUMPDEST PUSH2 0x1DA8 PUSH1 0x20 DUP4 ADD DUP8 PUSH2 0x1AE4 JUMP JUMPDEST PUSH2 0x1DB5 PUSH1 0x40 DUP4 ADD DUP7 PUSH2 0x1D31 JUMP JUMPDEST DUP2 DUP2 SUB PUSH1 0x60 DUP4 ADD MSTORE PUSH2 0x1DC7 DUP2 DUP6 PUSH2 0x1D50 JUMP JUMPDEST SWAP1 POP PUSH2 0x1DD6 PUSH1 0x80 DUP4 ADD DUP5 PUSH2 0x1AE4 JUMP JUMPDEST SWAP7 SWAP6 POP POP POP POP POP POP JUMP JUMPDEST PUSH0 DUP1 PUSH1 0x40 DUP4 DUP6 SUB SLT ISZERO PUSH2 0x1DF6 JUMPI PUSH2 0x1DF5 PUSH2 0x1A08 JUMP JUMPDEST JUMPDEST PUSH0 PUSH2 0x1E03 DUP6 DUP3 DUP7 ADD PUSH2 0x1A2B JUMP JUMPDEST SWAP3 POP POP PUSH1 0x20 PUSH2 0x1E14 DUP6 DUP3 DUP7 ADD PUSH2 0x1A2B JUMP JUMPDEST SWAP2 POP POP SWAP3 POP SWAP3 SWAP1 POP JUMP JUMPDEST PUSH2 0x1E27 DUP2 PUSH2 0x1B7C JUMP JUMPDEST DUP2 EQ PUSH2 0x1E31 JUMPI PUSH0 DUP1 REVERT JUMPDEST POP JUMP JUMPDEST PUSH0 DUP2 CALLDATALOAD SWAP1 POP PUSH2 0x1E42 DUP2 PUSH2 0x1E1E JUMP JUMPDEST SWAP3 SWAP2 POP POP JUMP JUMPDEST PUSH0 DUP1 PUSH1 0x40 DUP4 DUP6 SUB SLT ISZERO PUSH2 0x1E5E JUMPI PUSH2 0x1E5D PUSH2 0x1A08 JUMP JUMPDEST JUMPDEST PUSH0 PUSH2 0x1E6B DUP6 DUP3 DUP7 ADD PUSH2 0x1E34 JUMP JUMPDEST SWAP3 POP POP PUSH1 0x20 PUSH2 0x1E7C DUP6 DUP3 DUP7 ADD PUSH2 0x1A2B JUMP JUMPDEST SWAP2 POP POP SWAP3 POP SWAP3 SWAP1 POP JUMP JUMPDEST PUSH0 PUSH1 0x20 DUP3 ADD SWAP1 POP PUSH2 0x1E99 PUSH0 DUP4 ADD DUP5 PUSH2 0x1D31 JUMP JUMPDEST SWAP3 SWAP2 POP POP JUMP JUMPDEST PUSH0 PUSH1 0x20 DUP3 DUP5 SUB SLT ISZERO PUSH2 0x1EB4 JUMPI PUSH2 0x1EB3 PUSH2 0x1A08 JUMP JUMPDEST JUMPDEST PUSH0 PUSH2 0x1EC1 DUP5 DUP3 DUP6 ADD PUSH2 0x1E34 JUMP JUMPDEST SWAP2 POP POP SWAP3 SWAP2 POP POP JUMP JUMPDEST PUSH0 PUSH1 0x20 DUP3 ADD SWAP1 POP PUSH2 0x1EDD PUSH0 DUP4 ADD DUP5 PUSH2 0x1AE4 JUMP JUMPDEST SWAP3 SWAP2 POP POP JUMP JUMPDEST PUSH0 DUP1 PUSH1 0x40 DUP4 DUP6 SUB SLT ISZERO PUSH2 0x1EF9 JUMPI PUSH2 0x1EF8 PUSH2 0x1A08 JUMP JUMPDEST JUMPDEST PUSH0 PUSH2 0x1F06 DUP6 DUP3 DUP7 ADD PUSH2 0x1A2B JUMP JUMPDEST SWAP3 POP POP PUSH1 0x20 PUSH2 0x1F17 DUP6 DUP3 DUP7 ADD PUSH2 0x1E34 JUMP JUMPDEST SWAP2 POP POP SWAP3 POP SWAP3 SWAP1 POP JUMP JUMPDEST PUSH0 PUSH1 0x60 DUP3 ADD SWAP1 POP PUSH2 0x1F34 PUSH0 DUP4 ADD DUP7 PUSH2 0x1AE4 JUMP JUMPDEST PUSH2 0x1F41 PUSH1 0x20 DUP4 ADD DUP6 PUSH2 0x1AE4 JUMP JUMPDEST PUSH2 0x1F4E PUSH1 0x40 DUP4 ADD DUP5 PUSH2 0x1AE4 JUMP JUMPDEST SWAP5 SWAP4 POP POP POP POP JUMP JUMPDEST PUSH0 PUSH2 0x1F60 DUP3 PUSH2 0x1B7C JUMP JUMPDEST SWAP1 POP SWAP2 SWAP1 POP JUMP JUMPDEST PUSH2 0x1F70 DUP2 PUSH2 0x1F56 JUMP JUMPDEST DUP2 EQ PUSH2 0x1F7A JUMPI PUSH0 DUP1 REVERT JUMPDEST POP JUMP JUMPDEST PUSH0 DUP2 CALLDATALOAD SWAP1 POP PUSH2 0x1F8B DUP2 PUSH2 0x1F67 JUMP JUMPDEST SWAP3 SWAP2 POP POP JUMP JUMPDEST PUSH0 DUP1 PUSH0 DUP1 PUSH1 0x80 DUP6 DUP8 SUB SLT ISZERO PUSH2 0x1FA9 JUMPI PUSH2 0x1FA8 PUSH2 0x1A08 JUMP JUMPDEST JUMPDEST PUSH0 PUSH2 0x1FB6 DUP8 DUP3 DUP9 ADD PUSH2 0x1F7D JUMP JUMPDEST SWAP5 POP POP PUSH1 0x20 PUSH2 0x1FC7 DUP8 DUP3 DUP9 ADD PUSH2 0x1F7D JUMP JUMPDEST SWAP4 POP POP PUSH1 0x40 PUSH2 0x1FD8 DUP8 DUP3 DUP9 ADD PUSH2 0x1A2B JUMP JUMPDEST SWAP3 POP POP PUSH1 0x60 PUSH2 0x1FE9 DUP8 DUP3 DUP9 ADD PUSH2 0x1A2B JUMP JUMPDEST SWAP2 POP POP SWAP3 SWAP6 SWAP2 SWAP5 POP SWAP3 POP JUMP JUMPDEST PUSH32 0x4E487B7100000000000000000000000000000000000000000000000000000000 PUSH0 MSTORE PUSH1 0x22 PUSH1 0x4 MSTORE PUSH1 0x24 PUSH0 REVERT JUMPDEST PUSH0 PUSH1 0x2 DUP3 DIV SWAP1 POP PUSH1 0x1 DUP3 AND DUP1 PUSH2 0x2039 JUMPI PUSH1 0x7F DUP3 AND SWAP2 POP JUMPDEST PUSH1 0x20 DUP3 LT DUP2 SUB PUSH2 0x204C JUMPI PUSH2 0x204B PUSH2 0x1FF5 JUMP JUMPDEST JUMPDEST POP SWAP2 SWAP1 POP JUMP JUMPDEST PUSH32 0x4E487B7100000000000000000000000000000000000000000000000000000000 PUSH0 MSTORE PUSH1 0x32 PUSH1 0x4 MSTORE PUSH1 0x24 PUSH0 REVERT JUMPDEST PUSH32 0x5265656E7472616E637947756172643A207265656E7472616E742063616C6C00 PUSH0 DUP3 ADD MSTORE POP JUMP JUMPDEST PUSH0 PUSH2 0x20B3 PUSH1 0x1F DUP4 PUSH2 0x1D40 JUMP JUMPDEST SWAP2 POP PUSH2 0x20BE DUP3 PUSH2 0x207F JUMP JUMPDEST PUSH1 0x20 DUP3 ADD SWAP1 POP SWAP2 SWAP1 POP JUMP JUMPDEST PUSH0 PUSH1 0x20 DUP3 ADD SWAP1 POP DUP2 DUP2 SUB PUSH0 DUP4 ADD MSTORE PUSH2 0x20E0 DUP2 PUSH2 0x20A7 JUMP JUMPDEST SWAP1 POP SWAP2 SWAP1 POP JUMP JUMPDEST PUSH32 0x576974686472617720616D6F756E742065786365656473207468652062616C61 PUSH0 DUP3 ADD MSTORE PUSH32 0x6E63652100000000000000000000000000000000000000000000000000000000 PUSH1 0x20 DUP3 ADD MSTORE POP JUMP JUMPDEST PUSH0 PUSH2 0x2141 PUSH1 0x24 DUP4 PUSH2 0x1D40 JUMP JUMPDEST SWAP2 POP PUSH2 0x214C DUP3 PUSH2 0x20E7 JUMP JUMPDEST PUSH1 0x40 DUP3 ADD SWAP1 POP SWAP2 SWAP1 POP JUMP JUMPDEST PUSH0 PUSH1 0x20 DUP3 ADD SWAP1 POP DUP2 DUP2 SUB PUSH0 DUP4 ADD MSTORE PUSH2 0x216E DUP2 PUSH2 0x2135 JUMP JUMPDEST SWAP1 POP SWAP2 SWAP1 POP JUMP JUMPDEST PUSH32 0x4C6F636B20697320616374697665210000000000000000000000000000000000 PUSH0 DUP3 ADD MSTORE POP JUMP JUMPDEST PUSH0 PUSH2 0x21A9 PUSH1 0xF DUP4 PUSH2 0x1D40 JUMP JUMPDEST SWAP2 POP PUSH2 0x21B4 DUP3 PUSH2 0x2175 JUMP JUMPDEST PUSH1 0x20 DUP3 ADD SWAP1 POP SWAP2 SWAP1 POP JUMP JUMPDEST PUSH0 PUSH1 0x20 DUP3 ADD SWAP1 POP DUP2 DUP2 SUB PUSH0 DUP4 ADD MSTORE PUSH2 0x21D6 DUP2 PUSH2 0x219D JUMP JUMPDEST SWAP1 POP SWAP2 SWAP1 POP JUMP JUMPDEST PUSH0 PUSH1 0x40 DUP3 ADD SWAP1 POP PUSH2 0x21F0 PUSH0 DUP4 ADD DUP6 PUSH2 0x1D31 JUMP JUMPDEST PUSH2 0x21FD PUSH1 0x20 DUP4 ADD DUP5 PUSH2 0x1AE4 JUMP JUMPDEST SWAP4 SWAP3 POP POP POP JUMP JUMPDEST PUSH0 DUP2 ISZERO ISZERO SWAP1 POP SWAP2 SWAP1 POP JUMP JUMPDEST PUSH2 0x2218 DUP2 PUSH2 0x2204 JUMP JUMPDEST DUP2 EQ PUSH2 0x2222 JUMPI PUSH0 DUP1 REVERT JUMPDEST POP JUMP JUMPDEST PUSH0 DUP2 MLOAD SWAP1 POP PUSH2 0x2233 DUP2 PUSH2 0x220F JUMP JUMPDEST SWAP3 SWAP2 POP POP JUMP JUMPDEST PUSH0 PUSH1 0x20 DUP3 DUP5 SUB SLT ISZERO PUSH2 0x224E JUMPI PUSH2 0x224D PUSH2 0x1A08 JUMP JUMPDEST JUMPDEST PUSH0 PUSH2 0x225B DUP5 DUP3 DUP6 ADD PUSH2 0x2225 JUMP JUMPDEST SWAP2 POP POP SWAP3 SWAP2 POP POP JUMP JUMPDEST PUSH32 0x4E487B7100000000000000000000000000000000000000000000000000000000 PUSH0 MSTORE PUSH1 0x11 PUSH1 0x4 MSTORE PUSH1 0x24 PUSH0 REVERT JUMPDEST PUSH0 PUSH2 0x229B DUP3 PUSH2 0x1A0C JUMP JUMPDEST SWAP2 POP PUSH2 0x22A6 DUP4 PUSH2 0x1A0C JUMP JUMPDEST SWAP3 POP DUP3 DUP3 SUB SWAP1 POP DUP2 DUP2 GT ISZERO PUSH2 0x22BE JUMPI PUSH2 0x22BD PUSH2 0x2264 JUMP JUMPDEST JUMPDEST SWAP3 SWAP2 POP POP JUMP JUMPDEST PUSH0 DUP2 MLOAD SWAP1 POP PUSH2 0x22D2 DUP2 PUSH2 0x1A15 JUMP JUMPDEST SWAP3 SWAP2 POP POP JUMP JUMPDEST PUSH0 PUSH1 0x20 DUP3 DUP5 SUB SLT ISZERO PUSH2 0x22ED JUMPI PUSH2 0x22EC PUSH2 0x1A08 JUMP JUMPDEST JUMPDEST PUSH0 PUSH2 0x22FA DUP5 DUP3 DUP6 ADD PUSH2 0x22C4 JUMP JUMPDEST SWAP2 POP POP SWAP3 SWAP2 POP POP JUMP JUMPDEST PUSH32 0x416D6F756E7420657863656564732062616C616E636500000000000000000000 PUSH0 DUP3 ADD MSTORE POP JUMP JUMPDEST PUSH0 PUSH2 0x2337 PUSH1 0x16 DUP4 PUSH2 0x1D40 JUMP JUMPDEST SWAP2 POP PUSH2 0x2342 DUP3 PUSH2 0x2303 JUMP JUMPDEST PUSH1 0x20 DUP3 ADD SWAP1 POP SWAP2 SWAP1 POP JUMP JUMPDEST PUSH0 PUSH1 0x20 DUP3 ADD SWAP1 POP DUP2 DUP2 SUB PUSH0 DUP4 ADD MSTORE PUSH2 0x2364 DUP2 PUSH2 0x232B JUMP JUMPDEST SWAP1 POP SWAP2 SWAP1 POP JUMP JUMPDEST PUSH32 0x63616E74207769746864726177206465706F736974656420746F6B656E730000 PUSH0 DUP3 ADD MSTORE POP JUMP JUMPDEST PUSH0 PUSH2 0x239F PUSH1 0x1E DUP4 PUSH2 0x1D40 JUMP JUMPDEST SWAP2 POP PUSH2 0x23AA DUP3 PUSH2 0x236B JUMP JUMPDEST PUSH1 0x20 DUP3 ADD SWAP1 POP SWAP2 SWAP1 POP JUMP JUMPDEST PUSH0 PUSH1 0x20 DUP3 ADD SWAP1 POP DUP2 DUP2 SUB PUSH0 DUP4 ADD MSTORE PUSH2 0x23CC DUP2 PUSH2 0x2393 JUMP JUMPDEST SWAP1 POP SWAP2 SWAP1 POP JUMP JUMPDEST PUSH32 0x416D6F756E742073686F756C642062652067726561746572207468616E203000 PUSH0 DUP3 ADD MSTORE POP JUMP JUMPDEST PUSH0 PUSH2 0x2407 PUSH1 0x1F DUP4 PUSH2 0x1D40 JUMP JUMPDEST SWAP2 POP PUSH2 0x2412 DUP3 PUSH2 0x23D3 JUMP JUMPDEST PUSH1 0x20 DUP3 ADD SWAP1 POP SWAP2 SWAP1 POP JUMP JUMPDEST PUSH0 PUSH1 0x20 DUP3 ADD SWAP1 POP DUP2 DUP2 SUB PUSH0 DUP4 ADD MSTORE PUSH2 0x2434 DUP2 PUSH2 0x23FB JUMP JUMPDEST SWAP1 POP SWAP2 SWAP1 POP JUMP JUMPDEST PUSH0 PUSH1 0x60 DUP3 ADD SWAP1 POP PUSH2 0x244E PUSH0 DUP4 ADD DUP7 PUSH2 0x1D31 JUMP JUMPDEST PUSH2 0x245B PUSH1 0x20 DUP4 ADD DUP6 PUSH2 0x1D31 JUMP JUMPDEST PUSH2 0x2468 PUSH1 0x40 DUP4 ADD DUP5 PUSH2 0x1AE4 JUMP JUMPDEST SWAP5 SWAP4 POP POP POP POP JUMP JUMPDEST PUSH0 PUSH2 0x247A DUP3 PUSH2 0x1A0C JUMP JUMPDEST SWAP2 POP PUSH2 0x2485 DUP4 PUSH2 0x1A0C JUMP JUMPDEST SWAP3 POP DUP3 DUP3 ADD SWAP1 POP DUP1 DUP3 GT ISZERO PUSH2 0x249D JUMPI PUSH2 0x249C PUSH2 0x2264 JUMP JUMPDEST JUMPDEST SWAP3 SWAP2 POP POP JUMP JUMPDEST PUSH0 PUSH2 0x24AD DUP3 PUSH2 0x1A0C JUMP JUMPDEST SWAP2 POP PUSH2 0x24B8 DUP4 PUSH2 0x1A0C JUMP JUMPDEST SWAP3 POP DUP3 DUP3 MUL PUSH2 0x24C6 DUP2 PUSH2 0x1A0C JUMP JUMPDEST SWAP2 POP DUP3 DUP3 DIV DUP5 EQ DUP4 ISZERO OR PUSH2 0x24DD JUMPI PUSH2 0x24DC PUSH2 0x2264 JUMP JUMPDEST JUMPDEST POP SWAP3 SWAP2 POP POP JUMP JUMPDEST PUSH32 0x4C6F636B20697320616374697665000000000000000000000000000000000000 PUSH0 DUP3 ADD MSTORE POP JUMP JUMPDEST PUSH0 PUSH2 0x2518 PUSH1 0xE DUP4 PUSH2 0x1D40 JUMP JUMPDEST SWAP2 POP PUSH2 0x2523 DUP3 PUSH2 0x24E4 JUMP JUMPDEST PUSH1 0x20 DUP3 ADD SWAP1 POP SWAP2 SWAP1 POP JUMP JUMPDEST PUSH0 PUSH1 0x20 DUP3 ADD SWAP1 POP DUP2 DUP2 SUB PUSH0 DUP4 ADD MSTORE PUSH2 0x2545 DUP2 PUSH2 0x250C JUMP JUMPDEST SWAP1 POP SWAP2 SWAP1 POP JUMP JUMPDEST PUSH32 0x4E6F2072657761726420746F20636C61696D0000000000000000000000000000 PUSH0 DUP3 ADD MSTORE POP JUMP JUMPDEST PUSH0 PUSH2 0x2580 PUSH1 0x12 DUP4 PUSH2 0x1D40 JUMP JUMPDEST SWAP2 POP PUSH2 0x258B DUP3 PUSH2 0x254C JUMP JUMPDEST PUSH1 0x20 DUP3 ADD SWAP1 POP SWAP2 SWAP1 POP JUMP JUMPDEST PUSH0 PUSH1 0x20 DUP3 ADD SWAP1 POP DUP2 DUP2 SUB PUSH0 DUP4 ADD MSTORE PUSH2 0x25AD DUP2 PUSH2 0x2574 JUMP JUMPDEST SWAP1 POP SWAP2 SWAP1 POP JUMP JUMPDEST PUSH0 PUSH2 0x25BE DUP3 PUSH2 0x1A0C JUMP JUMPDEST SWAP2 POP PUSH32 0xFFFFFFFFFFFFFFFFFFFFFFFFFFFFFFFFFFFFFFFFFFFFFFFFFFFFFFFFFFFFFFFF DUP3 SUB PUSH2 0x25F0 JUMPI PUSH2 0x25EF PUSH2 0x2264 JUMP JUMPDEST JUMPDEST PUSH1 0x1 DUP3 ADD SWAP1 POP SWAP2 SWAP1 POP JUMP JUMPDEST PUSH32 0x4F776E61626C653A206E6577206F776E657220697320746865207A65726F2061 PUSH0 DUP3 ADD MSTORE PUSH32 0x6464726573730000000000000000000000000000000000000000000000000000 PUSH1 0x20 DUP3 ADD MSTORE POP JUMP JUMPDEST PUSH0 PUSH2 0x2655 PUSH1 0x26 DUP4 PUSH2 0x1D40 JUMP JUMPDEST SWAP2 POP PUSH2 0x2660 DUP3 PUSH2 0x25FB JUMP JUMPDEST PUSH1 0x40 DUP3 ADD SWAP1 POP SWAP2 SWAP1 POP JUMP JUMPDEST PUSH0 PUSH1 0x20 DUP3 ADD SWAP1 POP DUP2 DUP2 SUB PUSH0 DUP4 ADD MSTORE PUSH2 0x2682 DUP2 PUSH2 0x2649 JUMP JUMPDEST SWAP1 POP SWAP2 SWAP1 POP JUMP JUMPDEST PUSH32 0x4F776E61626C653A2063616C6C6572206973206E6F7420746865206F776E6572 PUSH0 DUP3 ADD MSTORE POP JUMP JUMPDEST PUSH0 PUSH2 0x26BD PUSH1 0x20 DUP4 PUSH2 0x1D40 JUMP JUMPDEST SWAP2 POP PUSH2 0x26C8 DUP3 PUSH2 0x2689 JUMP JUMPDEST PUSH1 0x20 DUP3 ADD SWAP1 POP SWAP2 SWAP1 POP JUMP JUMPDEST PUSH0 PUSH1 0x20 DUP3 ADD SWAP1 POP DUP2 DUP2 SUB PUSH0 DUP4 ADD MSTORE PUSH2 0x26EA DUP2 PUSH2 0x26B1 JUMP JUMPDEST SWAP1 POP SWAP2 SWAP1 POP JUMP JUMPDEST PUSH32 0x4E487B7100000000000000000000000000000000000000000000000000000000 PUSH0 MSTORE PUSH1 0x12 PUSH1 0x4 MSTORE PUSH1 0x24 PUSH0 REVERT JUMPDEST PUSH0 PUSH2 0x2728 DUP3 PUSH2 0x1A0C JUMP JUMPDEST SWAP2 POP PUSH2 0x2733 DUP4 PUSH2 0x1A0C JUMP JUMPDEST SWAP3 POP DUP3 PUSH2 0x2743 JUMPI PUSH2 0x2742 PUSH2 0x26F1 JUMP JUMPDEST JUMPDEST DUP3 DUP3 DIV SWAP1 POP SWAP3 SWAP2 POP POP JUMP JUMPDEST PUSH32 0x4E487B7100000000000000000000000000000000000000000000000000000000 PUSH0 MSTORE PUSH1 0x41 PUSH1 0x4 MSTORE PUSH1 0x24 PUSH0 REVERT JUMPDEST PUSH0 DUP2 SWAP1 POP DUP2 PUSH0 MSTORE PUSH1 0x20 PUSH0 KECCAK256 SWAP1 POP SWAP2 SWAP1 POP JUMP JUMPDEST PUSH0 PUSH1 0x20 PUSH1 0x1F DUP4 ADD DIV SWAP1 POP SWAP2 SWAP1 POP JUMP JUMPDEST PUSH0 DUP3 DUP3 SHL SWAP1 POP SWAP3 SWAP2 POP POP JUMP JUMPDEST PUSH0 PUSH1 0x8 DUP4 MUL PUSH2 0x27D7 PUSH32 0xFFFFFFFFFFFFFFFFFFFFFFFFFFFFFFFFFFFFFFFFFFFFFFFFFFFFFFFFFFFFFFFF DUP3 PUSH2 0x279C JUMP JUMPDEST PUSH2 0x27E1 DUP7 DUP4 PUSH2 0x279C JUMP JUMPDEST SWAP6 POP DUP1 NOT DUP5 AND SWAP4 POP DUP1 DUP7 AND DUP5 OR SWAP3 POP POP POP SWAP4 SWAP3 POP POP POP JUMP JUMPDEST PUSH0 PUSH2 0x2813 PUSH2 0x280E PUSH2 0x2809 DUP5 PUSH2 0x1A0C JUMP JUMPDEST PUSH2 0x1A89 JUMP JUMPDEST PUSH2 0x1A0C JUMP JUMPDEST SWAP1 POP SWAP2 SWAP1 POP JUMP JUMPDEST PUSH0 DUP2 SWAP1 POP SWAP2 SWAP1 POP JUMP JUMPDEST PUSH2 0x282C DUP4 PUSH2 0x27F9 JUMP JUMPDEST PUSH2 0x2840 PUSH2 0x2838 DUP3 PUSH2 0x281A JUMP JUMPDEST DUP5 DUP5 SLOAD PUSH2 0x27A8 JUMP JUMPDEST DUP3 SSTORE POP POP POP POP JUMP JUMPDEST PUSH0 SWAP1 JUMP JUMPDEST PUSH2 0x2854 PUSH2 0x2848 JUMP JUMPDEST PUSH2 0x285F DUP2 DUP5 DUP5 PUSH2 0x2823 JUMP JUMPDEST POP POP POP JUMP JUMPDEST JUMPDEST DUP2 DUP2 LT ISZERO PUSH2 0x2882 JUMPI PUSH2 0x2877 PUSH0 DUP3 PUSH2 0x284C JUMP JUMPDEST PUSH1 0x1 DUP2 ADD SWAP1 POP PUSH2 0x2865 JUMP JUMPDEST POP POP JUMP JUMPDEST PUSH1 0x1F DUP3 GT ISZERO PUSH2 0x28C7 JUMPI PUSH2 0x2898 DUP2 PUSH2 0x277B JUMP JUMPDEST PUSH2 0x28A1 DUP5 PUSH2 0x278D JUMP JUMPDEST DUP2 ADD PUSH1 0x20 DUP6 LT ISZERO PUSH2 0x28B0 JUMPI DUP2 SWAP1 POP JUMPDEST PUSH2 0x28C4 PUSH2 0x28BC DUP6 PUSH2 0x278D JUMP JUMPDEST DUP4 ADD DUP3 PUSH2 0x2864 JUMP JUMPDEST POP POP JUMPDEST POP POP POP JUMP JUMPDEST PUSH0 DUP3 DUP3 SHR SWAP1 POP SWAP3 SWAP2 POP POP JUMP JUMPDEST PUSH0 PUSH2 0x28E7 PUSH0 NOT DUP5 PUSH1 0x8 MUL PUSH2 0x28CC JUMP JUMPDEST NOT DUP1 DUP4 AND SWAP2 POP POP SWAP3 SWAP2 POP POP JUMP JUMPDEST PUSH0 PUSH2 0x28FF DUP4 DUP4 PUSH2 0x28D8 JUMP JUMPDEST SWAP2 POP DUP3 PUSH1 0x2 MUL DUP3 OR SWAP1 POP SWAP3 SWAP2 POP POP JUMP JUMPDEST PUSH2 0x2918 DUP3 PUSH2 0x1B9C JUMP JUMPDEST PUSH8 0xFFFFFFFFFFFFFFFF DUP2 GT ISZERO PUSH2 0x2931 JUMPI PUSH2 0x2930 PUSH2 0x274E JUMP JUMPDEST JUMPDEST PUSH2 0x293B DUP3 SLOAD PUSH2 0x2022 JUMP JUMPDEST PUSH2 0x2946 DUP3 DUP3 DUP6 PUSH2 0x2886 JUMP JUMPDEST PUSH0 PUSH1 0x20 SWAP1 POP PUSH1 0x1F DUP4 GT PUSH1 0x1 DUP2 EQ PUSH2 0x2977 JUMPI PUSH0 DUP5 ISZERO PUSH2 0x2965 JUMPI DUP3 DUP8 ADD MLOAD SWAP1 POP JUMPDEST PUSH2 0x296F DUP6 DUP3 PUSH2 0x28F4 JUMP JUMPDEST DUP7 SSTORE POP PUSH2 0x29D6 JUMP JUMPDEST PUSH1 0x1F NOT DUP5 AND PUSH2 0x2985 DUP7 PUSH2 0x277B JUMP JUMPDEST PUSH0 JUMPDEST DUP3 DUP2 LT ISZERO PUSH2 0x29AC JUMPI DUP5 DUP10 ADD MLOAD DUP3 SSTORE PUSH1 0x1 DUP3 ADD SWAP2 POP PUSH1 0x20 DUP6 ADD SWAP5 POP PUSH1 0x20 DUP2 ADD SWAP1 POP PUSH2 0x2987 JUMP JUMPDEST DUP7 DUP4 LT ISZERO PUSH2 0x29C9 JUMPI DUP5 DUP10 ADD MLOAD PUSH2 0x29C5 PUSH1 0x1F DUP10 AND DUP3 PUSH2 0x28D8 JUMP JUMPDEST DUP4 SSTORE POP JUMPDEST PUSH1 0x1 PUSH1 0x2 DUP9 MUL ADD DUP9 SSTORE POP POP POP JUMPDEST POP POP POP POP POP POP JUMP JUMPDEST PUSH32 0x5361666545524332303A204552433230206F7065726174696F6E20646964206E PUSH0 DUP3 ADD MSTORE PUSH32 0x6F74207375636365656400000000000000000000000000000000000000000000 PUSH1 0x20 DUP3 ADD MSTORE POP JUMP JUMPDEST PUSH0 PUSH2 0x2A38 PUSH1 0x2A DUP4 PUSH2 0x1D40 JUMP JUMPDEST SWAP2 POP PUSH2 0x2A43 DUP3 PUSH2 0x29DE JUMP JUMPDEST PUSH1 0x40 DUP3 ADD SWAP1 POP SWAP2 SWAP1 POP JUMP JUMPDEST PUSH0 PUSH1 0x20 DUP3 ADD SWAP1 POP DUP2 DUP2 SUB PUSH0 DUP4 ADD MSTORE PUSH2 0x2A65 DUP2 PUSH2 0x2A2C JUMP JUMPDEST SWAP1 POP SWAP2 SWAP1 POP JUMP JUMPDEST PUSH32 0x416464726573733A20696E73756666696369656E742062616C616E636520666F PUSH0 DUP3 ADD MSTORE PUSH32 0x722063616C6C0000000000000000000000000000000000000000000000000000 PUSH1 0x20 DUP3 ADD MSTORE POP JUMP JUMPDEST PUSH0 PUSH2 0x2AC6 PUSH1 0x26 DUP4 PUSH2 0x1D40 JUMP JUMPDEST SWAP2 POP PUSH2 0x2AD1 DUP3 PUSH2 0x2A6C JUMP JUMPDEST PUSH1 0x40 DUP3 ADD SWAP1 POP SWAP2 SWAP1 POP JUMP JUMPDEST PUSH0 PUSH1 0x20 DUP3 ADD SWAP1 POP DUP2 DUP2 SUB PUSH0 DUP4 ADD MSTORE PUSH2 0x2AF3 DUP2 PUSH2 0x2ABA JUMP JUMPDEST SWAP1 POP SWAP2 SWAP1 POP JUMP JUMPDEST PUSH32 0x416464726573733A2063616C6C20746F206E6F6E2D636F6E7472616374000000 PUSH0 DUP3 ADD MSTORE POP JUMP JUMPDEST PUSH0 PUSH2 0x2B2E PUSH1 0x1D DUP4 PUSH2 0x1D40 JUMP JUMPDEST SWAP2 POP PUSH2 0x2B39 DUP3 PUSH2 0x2AFA JUMP JUMPDEST PUSH1 0x20 DUP3 ADD SWAP1 POP SWAP2 SWAP1 POP JUMP JUMPDEST PUSH0 PUSH1 0x20 DUP3 ADD SWAP1 POP DUP2 DUP2 SUB PUSH0 DUP4 ADD MSTORE PUSH2 0x2B5B DUP2 PUSH2 0x2B22 JUMP JUMPDEST SWAP1 POP SWAP2 SWAP1 POP JUMP JUMPDEST PUSH0 DUP2 MLOAD SWAP1 POP SWAP2 SWAP1 POP JUMP JUMPDEST PUSH0 DUP2 SWAP1 POP SWAP3 SWAP2 POP POP JUMP JUMPDEST PUSH0 PUSH2 0x2B80 DUP3 PUSH2 0x2B62 JUMP JUMPDEST PUSH2 0x2B8A DUP2 DUP6 PUSH2 0x2B6C JUMP JUMPDEST SWAP4 POP PUSH2 0x2B9A DUP2 DUP6 PUSH1 0x20 DUP7 ADD PUSH2 0x1BB6 JUMP JUMPDEST DUP1 DUP5 ADD SWAP2 POP POP SWAP3 SWAP2 POP POP JUMP JUMPDEST PUSH0 PUSH2 0x2BB1 DUP3 DUP5 PUSH2 0x2B76 JUMP JUMPDEST SWAP2 POP DUP2 SWAP1 POP SWAP3 SWAP2 POP POP JUMP JUMPDEST PUSH0 PUSH1 0x20 DUP3 ADD SWAP1 POP DUP2 DUP2 SUB PUSH0 DUP4 ADD MSTORE PUSH2 0x2BD4 DUP2 DUP5 PUSH2 0x1D50 JUMP JUMPDEST SWAP1 POP SWAP3 SWAP2 POP POP JUMP INVALID LOG2 PUSH5 0x6970667358 0x22 SLT KECCAK256 BLOBHASH DUP8 SWAP10 0xB9 0xD3 0xEB 0xBA 0xCB 0xC1 SHL 0xD7 0xD8 CALLDATALOAD ADDMOD 0xE8 KECCAK256 EXTCODECOPY PUSH32 0xE68F0908B1E53F9613B0B3E1B0B464736F6C6343000819003300000000000000 "
		},
		"gasEstimates": {
			"creation": {
				"codeDepositCost": "2256400",
				"executionCost": "infinite",
				"totalCost": "infinite"
			},
			"external": {
				"addPool(address,address,uint256,uint256)": "infinite",
				"claimReward(uint256)": "infinite",
				"deposite(uint256,uint256)": "infinite",
				"depositedToken(address)": "2825",
				"getNotification()": "infinite",
				"modifyPool(uint256,uint256)": "infinite",
				"notifications(uint256)": "infinite",
				"owner()": "2604",
				"pendingReward(uint256,address)": "infinite",
				"poolCount()": "2513",
				"poolInfo(uint256)": "infinite",
				"renounceOwnership()": "30457",
				"sweep(address,uint256)": "infinite",
				"transferOwnership(address)": "30797",
				"userInfo(uint256,address)": "infinite",
				"withdraw(uint256,uint256)": "infinite"
			},
			"internal": {
				"calculatePendingReward(struct Staking.UserInfo storage pointer,uint256)": "infinite",
				"createNotification(uint256,uint256,address,string memory)": "infinite"
			}
		},
		"methodIdentifiers": {
			"addPool(address,address,uint256,uint256)": "c20632ba",
			"claimReward(uint256)": "ae169a50",
			"deposite(uint256,uint256)": "a2c2f1b0",
			"depositedToken(address)": "907b503d",
			"getNotification()": "31276cf8",
			"modifyPool(uint256,uint256)": "39739b99",
			"notifications(uint256)": "34c1f944",
			"owner()": "8da5cb5b",
			"pendingReward(uint256,address)": "98969e82",
			"poolCount()": "f525cb68",
			"poolInfo(uint256)": "1526fe27",
			"renounceOwnership()": "715018a6",
			"sweep(address,uint256)": "6ea056a9",
			"transferOwnership(address)": "f2fde38b",
			"userInfo(uint256,address)": "93f1a40b",
			"withdraw(uint256,uint256)": "441a3e70"
		}
	},
	"abi": [
		{
			"anonymous": false,
			"inputs": [
				{
					"indexed": true,
					"internalType": "address",
					"name": "previousOwner",
					"type": "address"
				},
				{
					"indexed": true,
					"internalType": "address",
					"name": "newOwner",
					"type": "address"
				}
			],
			"name": "OwnershipTransferred",
			"type": "event"
		},
		{
			"inputs": [
				{
					"internalType": "contract IERC20",
					"name": "_depositToken",
					"type": "address"
				},
				{
					"internalType": "contract IERC20",
					"name": "_rewardToken",
					"type": "address"
				},
				{
					"internalType": "uint256",
					"name": "_apy",
					"type": "uint256"
				},
				{
					"internalType": "uint256",
					"name": "_lockedDays",
					"type": "uint256"
				}
			],
			"name": "addPool",
			"outputs": [],
			"stateMutability": "nonpayable",
			"type": "function"
		},
		{
			"inputs": [
				{
					"internalType": "uint256",
					"name": "_poolID",
					"type": "uint256"
				}
			],
			"name": "claimReward",
			"outputs": [],
			"stateMutability": "nonpayable",
			"type": "function"
		},
		{
			"inputs": [
				{
					"internalType": "uint256",
					"name": "_poolID",
					"type": "uint256"
				},
				{
					"internalType": "uint256",
					"name": "_amount",
					"type": "uint256"
				}
			],
			"name": "deposite",
			"outputs": [],
			"stateMutability": "nonpayable",
			"type": "function"
		},
		{
			"inputs": [
				{
					"internalType": "address",
					"name": "",
					"type": "address"
				}
			],
			"name": "depositedToken",
			"outputs": [
				{
					"internalType": "uint256",
					"name": "",
					"type": "uint256"
				}
			],
			"stateMutability": "view",
			"type": "function"
		},
		{
			"inputs": [],
			"name": "getNotification",
			"outputs": [
				{
					"components": [
						{
							"internalType": "uint256",
							"name": "poolID",
							"type": "uint256"
						},
						{
							"internalType": "uint256",
							"name": "amount",
							"type": "uint256"
						},
						{
							"internalType": "address",
							"name": "user",
							"type": "address"
						},
						{
							"internalType": "string",
							"name": "message",
							"type": "string"
						},
						{
							"internalType": "uint256",
							"name": "timestamp",
							"type": "uint256"
						}
					],
					"internalType": "struct Staking.Notification[]",
					"name": "",
					"type": "tuple[]"
				}
			],
			"stateMutability": "view",
			"type": "function"
		},
		{
			"inputs": [
				{
					"internalType": "uint256",
					"name": "_poolID",
					"type": "uint256"
				},
				{
					"internalType": "uint256",
					"name": "_apy",
					"type": "uint256"
				}
			],
			"name": "modifyPool",
			"outputs": [],
			"stateMutability": "nonpayable",
			"type": "function"
		},
		{
			"inputs": [
				{
					"internalType": "uint256",
					"name": "",
					"type": "uint256"
				}
			],
			"name": "notifications",
			"outputs": [
				{
					"internalType": "uint256",
					"name": "poolID",
					"type": "uint256"
				},
				{
					"internalType": "uint256",
					"name": "amount",
					"type": "uint256"
				},
				{
					"internalType": "address",
					"name": "user",
					"type": "address"
				},
				{
					"internalType": "string",
					"name": "message",
					"type": "string"
				},
				{
					"internalType": "uint256",
					"name": "timestamp",
					"type": "uint256"
				}
			],
			"stateMutability": "view",
			"type": "function"
		},
		{
			"inputs": [],
			"name": "owner",
			"outputs": [
				{
					"internalType": "address",
					"name": "",
					"type": "address"
				}
			],
			"stateMutability": "view",
			"type": "function"
		},
		{
			"inputs": [
				{
					"internalType": "uint256",
					"name": "_poolID",
					"type": "uint256"
				},
				{
					"internalType": "address",
					"name": "_user",
					"type": "address"
				}
			],
			"name": "pendingReward",
			"outputs": [
				{
					"internalType": "uint256",
					"name": "",
					"type": "uint256"
				}
			],
			"stateMutability": "view",
			"type": "function"
		},
		{
			"inputs": [],
			"name": "poolCount",
			"outputs": [
				{
					"internalType": "uint256",
					"name": "",
					"type": "uint256"
				}
			],
			"stateMutability": "view",
			"type": "function"
		},
		{
			"inputs": [
				{
					"internalType": "uint256",
					"name": "",
					"type": "uint256"
				}
			],
			"name": "poolInfo",
			"outputs": [
				{
					"internalType": "contract IERC20",
					"name": "depositToken",
					"type": "address"
				},
				{
					"internalType": "contract IERC20",
					"name": "rewardToken",
					"type": "address"
				},
				{
					"internalType": "uint256",
					"name": "depositedAmount",
					"type": "uint256"
				},
				{
					"internalType": "uint256",
					"name": "apy",
					"type": "uint256"
				},
				{
					"internalType": "uint256",
					"name": "lockedDays",
					"type": "uint256"
				}
			],
			"stateMutability": "view",
			"type": "function"
		},
		{
			"inputs": [],
			"name": "renounceOwnership",
			"outputs": [],
			"stateMutability": "nonpayable",
			"type": "function"
		},
		{
			"inputs": [
				{
					"internalType": "address",
					"name": "_token",
					"type": "address"
				},
				{
					"internalType": "uint256",
					"name": "_amount",
					"type": "uint256"
				}
			],
			"name": "sweep",
			"outputs": [],
			"stateMutability": "nonpayable",
			"type": "function"
		},
		{
			"inputs": [
				{
					"internalType": "address",
					"name": "newOwner",
					"type": "address"
				}
			],
			"name": "transferOwnership",
			"outputs": [],
			"stateMutability": "nonpayable",
			"type": "function"
		},
		{
			"inputs": [
				{
					"internalType": "uint256",
					"name": "",
					"type": "uint256"
				},
				{
					"internalType": "address",
					"name": "",
					"type": "address"
				}
			],
			"name": "userInfo",
			"outputs": [
				{
					"internalType": "uint256",
					"name": "amount",
					"type": "uint256"
				},
				{
					"internalType": "uint256",
					"name": "lastRewardAt",
					"type": "uint256"
				},
				{
					"internalType": "uint256",
					"name": "lockUntil",
					"type": "uint256"
				}
			],
			"stateMutability": "view",
			"type": "function"
		},
		{
			"inputs": [
				{
					"internalType": "uint256",
					"name": "_poolID",
					"type": "uint256"
				},
				{
					"internalType": "uint256",
					"name": "_amount",
					"type": "uint256"
				}
			],
			"name": "withdraw",
			"outputs": [],
			"stateMutability": "nonpayable",
			"type": "function"
		}
	]
}